:020000040800F2
:1000000080490020DD01000883110008B9090008BB
:1000100081110008A9050008C918000800000000A7
:100020000000000000000000000000004501000882
:10003000F70600080000000089010008DD1600082E
:10004000F7010008F7010008F7010008F7010008B0
:10005000F7010008F7010008F7010008F7010008A0
:10006000F7010008F7010008F7010008F701000890
:10007000F7010008F7010008F7010008F701000880
:10008000F7010008F7010008F7010008F701000870
:10009000F7010008F7010008F7010008F701000860
:1000A000F7010008F7010008F7010008F701000850
:1000B000F7010008F7010008F7010008F701000840
:1000C000F7010008F7010008F7010008F701000830
:1000D000F7010008F7010008F7010008F701000820
:1000E000F7010008F7010008F7010008F701000810
:1000F000F7010008F7010008F7010008F701000800
:10010000F7010008F7010008F7010008F7010008EF
:10011000F7010008F7010008F7010008F7010008DF
:10012000F7010008F7010008F7010008F7010008CF
:10013000DFF80CD000F08CF800480047B51B000831
:1001400080490020224B19680868B0E8F00F80F35E
:100150000988BFF36F8F4FF0000080F311884EF0D5
:100160000D0E70470000000006480068006880F32C
:10017000088862B661B6BFF34F8FBFF36F8F00DFA1
:1001800000BF00BF08ED00E0EFF30980BFF36F8F01
:100190000F4B1A6820E9F00F106008B54FF0BF0050
:1001A00080F31188BFF34F8FBFF36F8F02F05AF9BE
:1001B0004FF0000080F31188BDE808401968086816
:1001C000B0E8F00F80F30988BFF36F8F704700BF6E
:1001D00050000020EFF3058070470000064880477C
:1001E00006480047FEE7FEE7FEE7FEE7FEE7FEE71C
:1001F000FEE7FEE7FEE7FEE7091700083101000809
:10020000D2B201E000F8012B491EFBD27047002258
:10021000F6E710B513460A4604461946FFF7F0FF05
:10022000204610BD30B50B46014600202022012497
:1002300009E021FA02F59D4205D303FA02F5491BB4
:1002400004FA02F52844151EA2F10102F1DC30BDCA
:10025000064C074D06E0E06840F0010394E8070013
:1002600098471034AC42F6D3FFF766FF6C2F0008B6
:100270008C2F0008002904D0816841F001018160C1
:100280007047816821F0010181607047002904D026
:10029000816841F4807181607047816821F48071C8
:1002A00081607047002904D0816841F48011816029
:1002B0007047816821F480118160704701460020F9
:1002C0008968490700D5012070470000014800688F
:1002D000704700004C2401400246002012680A4288
:1002E00000D001207047014600208968090700D529
:1002F0000120704710B500F09DF8BDE8104000F0F7
:10030000ABB8000010B542680E4B1A400C790B6870
:1003100042EA04221343436082680B4B1A40D1E93E
:10032000024323434C7942EA440213438360C26A86
:1003300022F47002097C491EC9B242EA0151C1622D
:1003400010BD0000FFFEF0FFFDF7F1FF70B50726BE
:1003500009290AD9C568A1F10A0404EB4404A6409E
:10036000B543A3401D43C56007E0056901EB4104A7
:10037000A640B543A3401D4305611F23072A09D2A8
:10038000446B521E02EB820293409C4391400C430B
:10039000446370BD0D2A09D2046BD21F02EB8202A6
:1003A00093409C4391400C43046370BDC46A0D3A72
:1003B00002EB820293409C4391400C43C46270BDA7
:1003C000816841F0080181607047000010B502218A
:1003D0000548FFF781FF054C18B1FFF777FF206054
:1003E00010BD0020206010BD002401401800002036
:1003F000002904D0816841F4A001816070478168C0
:1004000021F4A00181607047816841F0040181609E
:10041000704700000649002804D0086840F4000036
:1004200008607047086820F400000860704700000A
:100430000824014008B50121102000F0DDFE022053
:10044000ADF8000000208DF803006946014800F077
:10045000CAF908BD001001402DE9F04391B0012117
:10046000084600F0ADFE4C4F384600F0ABF84B4864
:1004700001904B48029000240394012504956E02DC
:100480000796E8020890059406942020099000023F
:100490000A900B9401A9384600F010F90121384662
:1004A00000F083F80121304600F0A6FE4FF4C0268C
:1004B0000C968DF834408DF835504FF46028CDF807
:1004C00038800F948DF84050344F0CA94C3F38467B
:1004D000FFF718FF4FF44049484600F067FE072336
:1004E000012210213846FFF731FF0120FFF792FF6C
:1004F00001213846FFF7CAFE0121880200F07CFE88
:100500000C968DF834408DF83550CDF838800F9426
:100510008DF84050234C0CA92046FFF7F3FE4846C7
:1005200000F044FE072301220B212046FFF70EFFB7
:1005300001213846FFF79EFE3846FFF741FF384657
:10054000FFF7D1FE0128FAD03846FFF75DFF3846A5
:10055000FFF7B4FE0028FAD001212046FFF78AFEFB
:100560002046FFF72DFF2046FFF7BDFE0128FAD0F9
:100570002046FFF749FF2046FFF7A0FE0028FAD0EB
:1005800001212046FFF78EFE01213846FFF730FF9C
:1005900011B0BDE8F0830000080002404C24014087
:1005A0001800002000280140FEE7002904D001685F
:1005B00041F001010160704701684FF6FE72114081
:1005C0000160704701684FF6FE7211400160002122
:1005D000016041608160C1603649364A0839904205
:1005E00004D1486840F00F0048607047314A143227
:1005F000904204D1486840F0F000486070472D4AAE
:100600002832904204D1486840F4706048607047D6
:10061000284A3C32904204D1486840F47040486017
:100620007047244A5032904204D1486840F4702008
:10063000486070471F4A6432904204D1486840F4D1
:100640007000486070471B4A7832904204D1486875
:1006500040F0706048607047174A111F904204D103
:10066000086840F00F0008607047134A1432904247
:1006700004D1086840F0F000086070470E4A283244
:10068000904204D1086840F47060086070470A4ADC
:100690003C32904204D1086840F4704008607047D2
:1006A000054A50329042FAD1086840F47020086040
:1006B00070470000080002400804024030B502689C
:1006C00047F6F0739A430C6A8B682343D1E90445DB
:1006D0002C4323438C692343CC6923434C6A234333
:1006E0008C6A234313430360CA6842600A688260CD
:1006F0004968C16030BD70478000A0F1C04000294A
:1007000004D0016841F00101016070470168024AAC
:100710001140016070470000FEFF0F0010B5D0E9E6
:1007200001121143D0E903231A43114342691143D3
:1007300082691143C2691143026A1143426A11433B
:10074000826A1143C26A1143026B1143026892002C
:10075000A2F1C04211608168082907D101688900AF
:10076000A1F1C0410A6842F040020A60416BD1E940
:10077000002342EA03128B688C891B0243EA04437C
:100780001A430B8A42EA03520B7D896942EA0362EB
:100790000A430168491C8900A1F1C0410A60C16A8D
:1007A000B1F5804F08D000686FF070418000A0F173
:1007B000C040C0F8041110BD816BD1E9002342EAAA
:1007C00003128B680C8A1B0243EA04531A430B7D05
:1007D000896942EA036200680A438000A0F1C040D0
:1007E000C0F8042110BD2DE9F0410022CC7804F0BE
:1007F0000F03E40601D58C7823430C784FF00F07E4
:1008000014F0FF0F4FF0010C1CD005680CFA02F435
:100810000E882640A64211D1960007FA06F825EA6E
:10082000080503FA06F848EA0505CE78282E02D016
:10083000482E02D002E0446100E00461521C082A04
:10084000E4D305600A88FF2A1ED94568002202F118
:1008500008060CFA06F40E882640A64210D196002F
:1008600007FA06F825EA080503FA06F848EA050536
:10087000CE78282E00D14461CE78482E00D1046174
:10088000521C082AE3D34560BDE8F08108B5012178
:10089000142000F0B1FC0120ADF8000004208DF818
:1008A000030069460548FFF79EFF4FF40050ADF87E
:1008B000000069460248FFF796FF08BD00080140A6
:1008C0000010014038B50121082000F095FC1020EF
:1008D0008DF8030003208DF802000120ADF8000020
:1008E0000F4C69462046FFF77EFF2021ADF800102F
:1008F00069462046FFF777FF0221ADF800106946F0
:100900002046FFF770FF0121204600F014F8202157
:10091000204600F010F80221204600F00CF838BD07
:10092000000C01400246002092680A4200D00120DB
:1009300070474161704701617047000070B505461E
:100940000C460F4E3078002803D100F083FD0120C3
:100950003070220AE1B2A13AC2EB021000EB421061
:1009600001EB4000A1380102C81701EB5070C11023
:10097000044820220144284600F042FD002070BDBA
:10098000340000200030180010B501210848FFF79E
:10099000C9FF012808D04FF400510648FFF7C2FFF5
:1009A000012803D0002010BD012010BD022010BD81
:1009B0000008014000100140FEE70000054A002841
:1009C00003D040211046FFF7B4BF40211046FFF787
:1009D000B2BF00000020014070B514461D462B46F2
:1009E000224600F04FFA044904FB05F00989BDE8EE
:1009F000704000F032B900001C00002001B502E098
:100A00000098401E009000980028F9D108BD000011
:100A10002DE9F04188B0144610231A4600F032FA4E
:100A20002C204FF0D843188021466846FFF786FFF8
:100A30000021124DEC464FF6FF784FF400474FF07F
:100A4000DA461CF8110008EA00200CEB4102547849
:100A50000443002027FA00F3234202D0EA883280C0
:100A600001E02A893280401CC0B21028F2D3491C10
:100A7000C9B21029E5D308B0BDE8F0811C00002000
:100A8000F0B5203A97B2174EF568AA88EB8802FBBA
:100A900003F44FEAE47C04EB5C74C4F3C7042D68F0
:100AA00007FB045500F0EEF92C204FF0D8410880E8
:100AB00000214FF0DA4712E0002080236A5C23FA1D
:100AC00000FC12EA0C0F02D0F2883A8001E0328971
:100AD0003A80401CC0B20828F0D3491CC9B2A142D8
:100AE000EAD3F0BD1C0000202DE9F04105460E467A
:100AF00000241F4F37E07E2A1AD8F8687B88818847
:100B00002144994203D90024C18829448DB2C08868
:100B1000B9882844884201D9002400252946204666
:100B2000FFF7AEFFF8688088204484B2761C1AE094
:100B3000798804F11000884202D900241035ADB242
:100B4000B98805F11000884201D9002400253088B9
:100B5000010201EB102082B229462046FFF758FF20
:100B60001034A4B2B61C3278002AC4D1BDE8F0819A
:100B70001C0000202DE9F04104460D4616461F4F8B
:100B800037E07E2A1AD8F8687B8881882144994208
:100B900003D90024C18829448DB2C088B98828446B
:100BA000884201D90024002529462046FFF768FF26
:100BB000F8688088204484B2761C1AE0798804F1B1
:100BC0001000884202D900241035ADB2B98805F171
:100BD0001000884201D9002400253088010201EB71
:100BE000102082B229462046FFF712FF1034A4B22B
:100BF000B61C3278002AC4D1BDE8F0811C00002068
:100C000000B597B00121080200F0DAFA0120019046
:100C10000420039080060790002002900490059025
:100C2000069006210891099008210A9110210B9144
:100C30000C900E900F901090090211911290139049
:100C4000149001A81590169008A8FFF767FD0121E0
:100C50000620FFF751FD17B000BD10B500222C2370
:100C60004FF0D84423804FF0DA4301E01980521C42
:100C70008242FBD310BD00002DE9F84F01214FF453
:100C8000B07000F0B9FA03248DF8024018258DF8F1
:100C900003504FF48047ADF8007069465148FFF7A4
:100CA000A2FD4FF40048ADF8008069464D48FFF7BB
:100CB0009AFD0120ADF8000069464A48FFF793FD10
:100CC0000220ADF8000069464648FFF78CFD802001
:100CD000ADF8000069464448FFF785FD4FF4807980
:100CE000ADF8009069464048FFF77DFD4FF4007A6B
:100CF000ADF800A069463C48FFF775FD4FF4806BE6
:100D0000ADF800B069463848FFF76DFDFE10ADF84C
:100D1000006069463448FFF766FD7000ADF80000DA
:100D200069463148FFF75FFDB000ADF80000694645
:100D30002D48FFF758FDADF8007069462A48FFF7C7
:100D400052FDADF8008069462748FFF74CFDADF82D
:100D5000009069462348FFF746FDADF800A06946BC
:100D60002048FFF740FDADF800B069461D48FFF789
:100D70003AFD8DF802408DF803501025ADF8005073
:100D800069461848FFF72FFD2020ADF8000069469E
:100D90001448FFF728FD2802ADF80000134F6946FC
:100DA0003846FFF720FD0420ADF8000069460E48E4
:100DB000FFF719FD8DF803508DF80240ADF8006083
:100DC00069463846FFF70FFD8DF803508DF8024055
:100DD0004020ADF8000069463846FFF704FDBDE845
:100DE000F88F00000014014000180140002001406D
:100DF00010B507282CD8184A1070C4074FF0F0011E
:100E00004FF4A07325D05380918036214B06198072
:100E1000082141EA40114FF0DA4001802A2119806F
:100E20000021018001805188491EC1F307240480FC
:100E3000C9B201802B211980002101800180918895
:100E4000491EC1F307220280C9B201802C201880FC
:100E500010BD51809380D8E71C00002010B5FFF72B
:100E60000BFFFFF7CDFE0120FFF7A8FD00F0E4F82F
:100E700000F026F802480078BDE81040FFF7B8BF40
:100E80001C00002070B52A244FF0D8463480050A93
:100E90004FF0DA442580C5B225801044401E020A76
:100EA0002280C0B220802B203080080A2080C8B267
:100EB0002080C818401E010A2180C0B2208070BD69
:100EC00010B5CF204FF0D844208000214FF0DA40F9
:100ED00001808121018030210180ED212180642168
:100EE0000180032101801221018081210180E821FC
:100EF0002180852101801021018078210180CB2172
:100F00002180392101802C210180002101803421A0
:100F1000018002210180F721218020210180EA2126
:100F20002180002101800180B121218000210180E8
:100F30001B210180B62121800A210180A22101808C
:100F4000C021218035210180C12121801121018012
:100F5000C5212180452101800180C7212180A22156
:100F60000180F221218000210180262121800121A0
:100F70000180E02121800F21018026210180242190
:100F800001800B2101800E21018009210180542163
:100F90000180A8210180462101800C2101801721B8
:100FA0000180092101800F2101800721018000219A
:100FB0000180E121218000210180192101801B2174
:100FC00001800421018010210180072101802A2154
:100FD0000180472101803921018003210180062100
:100FE0000180018030210180382101800F210180A2
:100FF00036212180C82101802A2121800021018001
:1010000001800180EF2101802B21218000210180BE
:101010000180012101803F2101803A212180552159
:101020000180112020800348FFF7E8FC2920208060
:1010300010BD0000FCBF020070B50A4D4FF4006403
:1010400021462846FFF775FC40F6FF263046FFF79D
:10105000D5FC21462846FFF76EFC3046BDE87040BF
:10106000FFF7CCBC0020014010B50024FFF78CFC3A
:101070001C4A00B190705178A02909D0A023B02952
:101080000DD0C02917D0F02927D05370204610BDAD
:101090000028FBD000201070B0205070F6E740B15F
:1010A0001078401CC0B210700228EFD3C0205070DE
:1010B000ECE75370EAE758B11078401CC0B21070EA
:1010C0006428E3D3907840F0E004F0205070DDE72E
:1010D000907840F0C0045370D8E70028D6D1537000
:1010E000D4E700001000002070B50024FFF7BCFF1B
:1010F000194A10B100F00F011171D1780C25A02907
:1011000007D0A023D0290ED0F02920D0D3702046BC
:1011100070BDB5EB101F04D100201070D020D0702E
:10112000F5E70446F3E7B5EB101F05D1107940F061
:10113000D004F020D070EAE71078401CC0B21070E4
:101140001928E4D3107940F0C004D370DFE70028F9
:10115000DDD1D370DBE70000100000200148C0683B
:10116000704700001C000020014AD08011817047A8
:101170001C0000200149C860704700001C000020CE
:10118000FEE77047024908430249086070470000C3
:101190000000FA050CED00E0024A1140014302484C
:1011A0000160704780FFFF1F08ED00E0034A5168AF
:1011B00021F440410143516070470000001002409B
:1011C000054A002903D051690143516170475169B3
:1011D000814351617047000000100240054A002918
:1011E00003D0D1690143D1617047D1698143D16195
:1011F0007047000000100240054A002903D09169A1
:10120000014391617047916981439161704700008A
:10121000001002400C48016841F001010160416882
:101220000A4A114041600168094A114001600168A1
:1012300021F480210160416821F4FE0141604FF4F6
:101240001F01816070470000001002400000FFF89D
:10125000FFFFF6FE10B5264A516801F00C01254B40
:10126000002927D0042927D0082927D003605168F6
:1012700001F0F0010909204B5C5C0168E14041602C
:10128000546804F4E064240A1C5D21FA04F48460C8
:10129000546804F46054E40A1B5DD940C16052688C
:1012A00002F44042920B144B1B1F9A5CB1FBF2F10B
:1012B000016110BD0360DAE70360D8E7516801F40B
:1012C0007011536803F48033022404EB914133B16D
:1012D00053689B0307D5094B59430160C7E7074B88
:1012E00059430160C3E7034B59430160BFE7000066
:1012F0000010024000127A004000002000093D006A
:10130000034600205909094A01290AD002290AD0B6
:10131000516A03F01F02012393400B4200D00120C9
:1013200070471168F5E7116AF3E70000001002400A
:101330000248406800F00C007047000000100240B6
:10134000034A516821F0F0010143516070470000E9
:10135000001002400C490A6822F480320A600A68D0
:1013600022F480220A60B0F5803F07D0B0F5802FCC
:1013700003D1086840F4A02008607047086840F472
:10138000803008607047000000100240034A516836
:1013900021F4E061014351607047000000100240F9
:1013A000034A516821F4605141EAC000506070471F
:1013B00000100240014908667047000000004242E8
:1013C000034B5A6822F47C1208431043586070475C
:1013D00000100240034A516821F0030101435160AB
:1013E0007047000000100240002904D0018841F03D
:1013F000400101807047018821F040010180704761
:101400002DE9F04104460F461546114E1021304695
:10141000FFF78FFA032000F079F8C7F3074000F0D8
:1014200075F8C7F3072000F071F8F8B200F06EF815
:1014300004E0FF2000F06AF804F8010B6D1EADB265
:10144000F7D23046BDE8F0411021FFF774BA000032
:101450000008014010B586B001210803FFF7CCFE5B
:101460000121C420FFF7C8FE1020ADF800000321C1
:101470008DF802108DF80300224C69462046FFF7D4
:10148000B2F92021ADF8001018218DF8031069463B
:101490002046FFF7A8F94021ADF800106946204624
:1014A000FFF7A1F98021ADF8001069462046FFF74B
:1014B0009AF910212046FFF73EFA0020ADF804000B
:1014C0004FF48271ADF80610ADF808000221ADF8B6
:1014D0000A100121ADF80C104902ADF80E100821D8
:1014E000ADF81010ADF812000720ADF81400064C4E
:1014F00001A9204600F04DF801212046FFF774FFB6
:1015000006B010BD00080140003001402DE9F04157
:101510000746184C4FF480552560174E09E02068A7
:10152000411E216005D2002000F050F8C0B2BDE895
:10153000F0810221304600F021F80028EFD0394632
:10154000304600F024F8256008E021684A1E226039
:1015500004D2012000F03AF8C0B2E8E70121304699
:1015600000F00CF80028F0D0304600F00EF8C0B2C1
:10157000DDE7000038000020003001400246002076
:1015800012890A4200D0012070478089704781810A
:10159000704730B5028802F441530A884C88CD88E0
:1015A00022438C882C4322430C8922434C892243BA
:1015B0008C892243CC8922431A430280828B22F4F5
:1015C00000628283098A018230BD000010B50146A5
:1015D00002A000F07BF9002010BD00003C3C2D462D
:1015E0004C4153482D4552524F522D3E3E205350B0
:1015F0004920B5C8B4FDB3ACCAB1216572726F722F
:10160000436F6465203D2025640A0000AFF300802D
:101610000CB50022019200922748016841F4803104
:1016200001604FF4A063016801F400310091019959
:10163000491C0191009911B901999942F3D10168AE
:10164000890302D50121009100E00092009901294F
:1016500030D11A490A6842F010020A600A6822F082
:1016600003020A600A6842F002020A6041684160AF
:1016700041684160416841F480614160416821F402
:101680007C114160416841F4E8114160016841F01A
:101690008071016001688901FCD5416821F0030176
:1016A0004160416841F0020141604168C1F381013C
:1016B0000229FAD10CBD00000010024000200240B7
:1016C0004FF0E021042804D0086920F004000861EC
:1016D0007047086940F004000861704710B5BF20EA
:1016E00080F31188BFF34F8FBFF36F8F01F02EF897
:1016F00018B104494FF080500860002080F3118831
:1017000010BD000004ED00E010B50F48016841F085
:101710000101016041680D4A1140416001680C4AB5
:1017200011400160016821F480210160416821F4C9
:10173000FE0141604FF41F018160FFF767FF05491B
:101740004FF00060086010BD001002400000FFF87C
:10175000FFFFF6FE08ED00E0002904D0818941F486
:10176000005181817047818921F400518181704746
:1017700010B586B001210420FFF73EFD012188034A
:10178000FFF73AFD4FF40070ADF8140018208DF803
:10179000170003208DF81600144C05A92046FFF70A
:1017A00022F82115ADF8141004218DF8171005A9A1
:1017B0002046FFF718F84FF4E13001900020ADF813
:1017C0000800ADF80A00ADF80C00ADF810000C20D0
:1017D000ADF80E00064C01A9204600F013F80121D7
:1017E0002046FFF7B9FF06B010BD00000008014019
:1017F000003801400246002012880A4200D0012031
:101800007047000030B585B004460D46208A4CF67E
:10181000FF710840E98801432182A0894EF6F31147
:101820000840A9882A8911436A8902431143A1818A
:10183000A08A4FF6FF410840A9890143A18268466A
:10184000FFF708FD1D48844201D1039800E002988B
:10185000A189090408D500EBC00101EB001029683B
:101860004900B0FBF1F007E000EBC00101EB001014
:1018700029688900B0FBF1F06422B0FBF2F10901A4
:101880000B096FF018056B4300EB8300A3891D045F
:101890004FF0320307D503EBC000B0FBF2F000F0CD
:1018A0000700084306E003EB0010B0FBF2F000F085
:1018B0000F000843208105B030BD00000038014012
:1018C000C1F3080181807047FEE700000FB4054BAB
:1018D00010B503A9044A029800F018F810BC5DF88E
:1018E00014FB0000CD1A0008B000002002E008C878
:1018F000121F08C1002AFAD170477047002001E08A
:1019000001C1121F002AFBD1704700002DE9FF4FD3
:1019100089B09B460446002506E025280BD05A4690
:101920000B999047641C6D1C20780028F5D10DB0F0
:101930002846BDE8F08F0027B8460122474900E05D
:10194000074314F8013F203B02FA03F00842F7D1A5
:1019500020782E2819D114F8010F47F004072A28FF
:101960000ED06FF02F022078A0F1300109290CD899
:1019700008EB880102EB410100EB0108641CF2E76F
:101980000A98641C50F8048B0A9020780028CED066
:10199000642808D0692806D075281ED05A460B99AD
:1019A00090476D1C58E00A994FF00A0901C90A9145
:1019B000002802DA40422D2102E0390504D52B210E
:1019C0008DF82010012103E0F90704D02021F7E76A
:1019D0008A4608AE0DE00021FAE70A994FF00A099D
:1019E00001C90A91F7E74946FEF71CFC303106F8B9
:1019F000011D0028F7D1ADEB060000F120097807A2
:101A000001D44FF00108C84502DDA8EB090000E051
:101A100000208046002706E008A85A46C05D0B99C2
:101A200090476D1C7F1C5745F6DB04E030205A467A
:101A30000B9990476D1CB8F10001A8F10108F5DC85
:101A400005E016F8010B5A460B9990476D1CB9F149
:101A50000001A9F10109F4DC641C65E70928010013
:101A6000FFF7FCF90620FFF7C3F90B48FFF782FBED
:101A700000214FF47840FFF777FB084800210388E6
:101A8000074802880846FEF7A7FF00F0E1FB00F0D8
:101A9000EDF800F077F9F8E72C0000202000002096
:101AA0001E0000201CB5FEF725FC00240194064D05
:101AB000FEF78CFC0190009404230021019AE86851
:101AC00000F06EFDF4E700000000002070B5044651
:101AD000064DE1B22846FFF7F3FE80212846FFF7C6
:101AE00089FE0028F9D0204670BD00000038014072
:101AF0001CB500F025FE01900025074CFFF7F4FA15
:101B00000246009504230021206800F049FD1421BD
:101B100001A800F017FDF1E7000000201CB5DFF878
:101B20009080012520264FF0FF39A8F104040227F8
:101B3000002201AB11461046CDF8009000F0ACFD3C
:101B40000128F5D19DF80400D22824D006DCC12854
:101B50000CD0C22819D0D12804D10CE0E1280FD034
:101B6000E2281ED0266025602760E1E7C8F8006003
:101B700025602760DCE72660C8F800502760D7E7BB
:101B800026602560C8F80070D2E7C8F80060C8F881
:101B900000502760CCE7C8F800602560C8F80070E6
:101BA000C6E72660C8F80050C8F80070C0E700001B
:101BB000140C01401CB5FEF785FEFEF767FE00F031
:101BC00099FA16480024CDE900402346642214A166
:101BD000164800F083FC11480121001DCDE90010DA
:101BE0000023642212A1154800F078FC0B48002362
:101BF0000830CDE90040642211A1164800F06EFCC7
:101C0000064800230C30CDE90040642212A116489A
:101C100000F064FC00F0F6FB00201CBD000000207A
:101C20004C45445F5461736B000000001D1B0008AD
:101C30004B45595F5461736B00000000F11A0008B6
:101C4000656E7669726F6E6D656E74616C5F5461FE
:101C5000736B0000A51A0008646973706C61795F8A
:101C60005461736B00000000611A00084FF6FF74A6
:101C7000FFF774FA23A10020FEF736FFFFF76EFA94
:101C8000C08823A100EB800080B2FEF72DFFFFF794
:101C900065FAC08821A1C0EBC00080B2FEF724FF26
:101CA000FFF75CFAC08822A104EAC000FEF71CFF1F
:101CB000FFF754FAC08823A100EBC00080B2FEF702
:101CC00013FFFFF74BFAC08822A100EB800004EA63
:101CD0004000FEF709FFFFF741FAC08800EB400122
:101CE00001EBC00080B21FA1FEF7FEFEFFF736FA3F
:101CF000C08820A100EB400004EA8000FEF7F4FE5B
:101D0000B6E70000B1B1BEA9CAB1BCE4A3BA0000F5
:101D1000B5E7D1B9D6B5A3BA000000004B4559319B
:101D2000B5A5BBF7C9CFB7ADB2CBB5A500000000D4
:101D30004B455932B5A5BBF7CFC2B7ADB2CBB5A5B0
:101D4000000000004B455931CBABBBF7CFF2D7F3C6
:101D5000000000004B455932B5A5BBF7CFF2D3D2F6
:101D6000000000004B455931B3A4B0B4C8B7B6A8C1
:101D7000000000004B455932B3A4B0B4CDCBB3F64C
:101D80000000000010B508480021038807480288B9
:101D90000846FEF721FEFFF7E1F9BDE8104004A177
:101DA0000020FEF7A1BE0000200000201E00002041
:101DB000C7EBCAE4C8EBC9E8D6C3C3DCC2EBA3BA1D
:101DC000000000002DE9F04104460F461E4DEE686C
:101DD0002868001D00F094FA38B9286890F82C1093
:101DE00001208840296981432961601C15D1A7B170
:101DF000164948682A68906082682B68DA602A6809
:101E00008368121D5A602A68121D82602868416129
:101E10000868401C0860BDE8F081344428684460CC
:101E2000B44206D22968E86B091DBDE8F04100F014
:101E300088BA2968A86B091D00F083FAA86A844251
:101E4000E9D2AC62E7E70000500000206801002002
:101E500070B5044600F08EFA244DA868401CA860B6
:101E6000286810B1686938B10CE02C60A8680128B6
:101E700008D100F0D9F805E02868E16AC06A884214
:101E800000D82C60686A401C6862E06A01212A69F7
:101E9000814011432961164A00EB800002EB80006B
:101EA0004068A0608168E1608368211D596081609D
:101EB000E06A00EB800002EB8001616152F82010C3
:101EC000491C42F8201000F063FA686900280CD021
:101ED0002868E16AC06A884207D206494FF08050FC
:101EE0000860BFF34F8FBFF36F8F70BD50000020AD
:101EF000B400002004ED00E070B50C4D0C4E11E074
:101F000000F038FAF068C468201D00F0F9F9A868FC
:101F1000401EA8606868401E686000F039FA2046DC
:101F200000F008F868680028EAD170BD5000002071
:101F30005401002010B50446206B00F035FA20460D
:101F4000BDE8104000F030BA4FF488410E48420717
:101F500006D0C01D20F007000B49411AC1F5884189
:101F60000A4B186000225A600144083921F0070129
:101F7000143B19604A600A600A1A426001604068B6
:101F800098605860704700007C010020A800002085
:101F9000074E4FF08054074DFFF7AEFF3068012821
:101FA000FAD92C60BFF34F8FBFF36F8FF4E70000B7
:101FB000B400002004ED00E02DE9F0478146DDE9A2
:101FC00008560A9C9846521E206B00EB820020F0B7
:101FD000070700290CD0002023180A5C83F834205E
:101FE0000A5C12B1401C1028F6D3002084F843008C
:101FF000052D00D30425E562201D00F09FF904F1B2
:10200000180000F09BF92461C5F10500A06164622D
:1020100042464946384600F00DF92060002E00D0B7
:102020003460BDE8F087000070B50024124D04EB69
:10203000840005EB800000F076F9641C052CF6D3D3
:102040000D48643000F06FF90B48783000F06BF900
:1020500009488C3000F067F90748A03000F063F9B8
:102060000548B43000F05FF90349044864318163E6
:102070001431C16370BD0000B40000205000002086
:1020800030B5134900E011460A688242FBD34B6821
:102090005C18844203D140681844486008460D68C3
:1020A00044682318AB420DD1094B143B1B689A427C
:1020B00006D05268224442600A681268026002E058
:1020C000036000E00260814200D0086030BD000083
:1020D000A80000200648816B0968002904D0816BA4
:1020E000C9680968816270474FF0FF3181627047AB
:1020F0005000002010B5FFF78DF84FF480342046D3
:10210000FFF728F93120FFF7FBF80028FAD01C4927
:10211000022008600020FFF713F90020FFF740F9C4
:102120004FF48060FFF732F94FF4E0112046FFF7DB
:1021300047F90120FFF73EF93920FFF7E1F80028C1
:10214000FAD00220FFF746F9FFF7F2F80828FBD192
:1021500001217D20FFF750F801218803FFF73EF8A9
:1021600000214FF00060FFF717F84FF44070FFF7C1
:1021700009F80420FFF7A4FABDE81040FFF7F8BA09
:1021800000200240BF2080F31188BFF34F8FBFF3C0
:102190006F8FFEE72DE9F0410546002600F05AF961
:1021A000234F386808B9FFF7CFFE4DB105F007009F
:1021B000C0F11000C1438D4201D8054400E0002564
:1021C000002D2FDD786885422CD819491431084636
:1021D000046801E0214604466068A84202D22068F3
:1021E0000028F7D1386884421CD00E680836206871
:1021F00008606068411B102904D96019416065605E
:10220000FFF73EFF61687868401A7860BA689042CC
:1022100000D2B86041F00040606000202060F868A3
:10222000401CF86000F020FB3046BDE8F081000063
:102230009400002020384FF08073C36121F0010129
:1022400081610249416140F82029704785210008D9
:10225000194800210388194802880846FEF7BCFB8C
:102260004FF6FF74002116A20846FEF783FC15A264
:1022700000211020FEF77EFCFEF770FFC08814A13D
:10228000FEF732FCFEF76AFFC08814A104EA4000A2
:10229000FEF72AFCFEF762FFC08813A100EB4000A6
:1022A00080B2FEF721FCFEF759FFC08811A104EAB5
:1022B0008000FEF719FCD5E7200000201E0000205A
:1022C0002D3E0000CFB5CDB3C9E8D6C30000000055
:1022D000B1A8BEAFC9E8D6C300000000CDA8D1B6F2
:1022E000C9E8D6C300000000CDF8C2E7C9E8D6C3EC
:1022F00000000000C0FACAB7B2E9D1AF0000000088
:102300000169D0E901329A60D0E901235A604A6834
:10231000824201D182684A60002202610868401E40
:1023200008600868704700F1080141604FF0FF3213
:102330008260C1600161002101607047002101617C
:10234000704730B50C68621C02D000F1080202E050
:10235000026904E01A4653681D68A542FAD9536819
:102360004B6099608A60516008610168491C016096
:1023700030BD0000BF2080F31188BFF34F8FBFF343
:102380006F8F02480168491C01607047900000206F
:1023900004490868401E0860002801D180F31188B4
:1023A000704700009000002070B500281BD008384E
:1023B00004466068002816DA2168002913D120F04D
:1023C0000040606000F046F8074D606869680844A6
:1023D00068602046FFF754FE2869401C2861BDE86C
:1023E000704000F041BA70BD940000204FF0E02032
:1023F000002101618161024941610721016170474A
:102400003F1901007CB50F480025CDE900502B464F
:1024100080220DA10E4800F061F80A4C2C3C0128E6
:102420000ED1BF2080F31188BFF34F8FBFF36F8FA2
:102430004FF0FF30A06201206061E56000F036F8E7
:10244000206B7CBD7C00002049444C45000000000E
:10245000911F00080248416B491C4163704700000E
:10246000500000200F4A506B002802D00120D0619C
:1024700070470020D0611069B0FA80F0C0F11F00F1
:10248000094900EB800001EB800041684968416028
:1024900000F10803994201D1496841604068C06871
:1024A0001060704750000020B400002010B50948AB
:1024B000016841F47F010160016841F07F410160E2
:1024C000FFF794FF044900200860FDF74DFE00204F
:1024D00010BD000020ED00E0900000202DE9FF5F1E
:1024E0008146DDE90E788A4616469B46B000FFF726
:1024F00051FE054628000ED04C20FFF74BFE044647
:102500002CB14C212046FDF782FE256304E02846CD
:10251000FFF74AFF00E000248CB10020CDE9024023
:10252000CDE900785B46324651464846FFF744FD08
:102530002046FFF78DFC012004B0BDE8F09F4FF06E
:10254000FF30F9E770B503460D460024FFF782FF20
:102550001148C26818684119904205D9884208D9C3
:10256000914206D9012404E0884201D8914200D961
:10257000012419601CB1881A0021FFF723FC00F028
:1025800073F938B905494FF080500860BFF34F8F99
:10259000BFF36F8F204670BD5000002004ED00E0B7
:1025A0002DE9F0470446DDF82090884615461F4681
:1025B0000126FFF7DFFE04EB8800B9F1000F02D01F
:1025C000416CC9F8001004EB080212F8481F0223FE
:1025D0001370052F13D2DFE807F01203070B0D006D
:1025E000426C2A4342640AE0426C521C426406E098
:1025F000456404E0022901D0456400E00026012979
:102600003FD16069D4E902219160D4E9021251609E
:102610004268211D8A4201D1E26842600022626163
:102620000268521E0260194BE06A01221D69824055
:102630002A431A61164A00EB800002EB80004068D2
:10264000A0608568E560856869608160E06A00EB8C
:10265000800002EB80006061E06A00EB800052F8CD
:102660002010491C42F82010E06A1968C96A8842A3
:1026700007D908494FF080500860BFF34F8FBFF370
:102680006F8FFFF785FE3046BDE8F08750000020D1
:10269000B400002004ED00E02DE9F0470446884630
:1026A00017461D46DDF82090FFF764FE224E306885
:1026B000204490F8480002281AD0306800EB8400CB
:1026C000416C21EA0801416431680120214481F80C
:1026D0004800B9F1000F0BD001214846FFF772FB0B
:1026E00016494FF080500860BFF34F8FBFF36F8FD4
:1026F000FFF74EFEFFF73EFE25B1306800EB840089
:10270000406C28603068204490F84800022801D0CE
:10271000002506E0306800EB8400416CB943416459
:10272000012531680020214481F84800FFF730FE80
:102730002846BDE8F08700005000002004ED00E0CE
:102740000148C06870470000500000202DE9F041AA
:102750000025434E706B002805D0B069401CB06165
:102760002846BDE8F081F468641CF46044B9B06B9D
:10277000F16BB163F063306A401C3062FFF7AAFC72
:10278000B06A384F84420FD34FF0000CB06B006832
:1027900038B1B06BC068C1684868844212D2B06278
:1027A00002E04FF0FF30B0623068C06A00EB80009A
:1027B00057F82000012800D90125F0690028CFD062
:1027C0000125CDE74A69D1E902309860D1E90203D9
:1027D000586050680B1D984201D1C8685060C1F81C
:1027E00014C01068401E10608A6A9AB1D1E907804F
:1027F000C8F80800D1E90708C8F80400506801F1DA
:102800001808404501D1086A5060C1F828C0106816
:10281000401E1060C86A0122D6F81080824042EA49
:102820000802326100EB800007EB800042688A609A
:102830009068C860906843609360C86A00EB80004D
:1028400007EB80024A6157F82020521C47F82020ED
:10285000C86A3168C96A884298D9012596E700009C
:1028600050000020B40000202DE9F0410024A046D3
:10287000FFF780FD3E4D686B401E6863686B002863
:1028800071D1A86800286ED000273A4A01264EE090
:10289000D068C468A16AD4E907309860D4E9070316
:1028A00058604B6804F11800834201D1206A4860E7
:1028B000A7620868401E08606169D4E90230986028
:1028C000D4E9020358604B68201D834201D1E368BC
:1028D0004B6067610B685B1E0B60E16AD5F810C046
:1028E00006FA01F343EA0C032B61224B01EB810151
:1028F0008C3B03EB81014968A160D1F808C0C4F8A2
:102900000CC0D1F808C0CCF804008860E06A00EB85
:10291000800003EB8001616153F82010491C43F8EB
:102920002010E06A2968C96A884200D3EE61106805
:102930000028ADD10CB1FFF7CDFBAC693CB1FFF77E
:1029400005FF00B1EE61641E002CF8D1AF61E869AB
:1029500048B14FF0010808494FF080500860BFF3BC
:102960004F8FBFF36F8FFFF713FD4046BDE8F08137
:10297000500000204001002004ED00E000000000B5
:10298000000000000000000000000000000000182F
:102990001818181818080008180000000000003463
:1029A00024242400000000000000000000000000BB
:1029B00016247F2424247E24240000000000000824
:1029C0003E6848681C1612127C101000000000615E
:1029D000D296740810162949C600000000000000B5
:1029E0003C646438724ACE467F0000000000001844
:1029F000181818000000000000000000000000048B
:102A0000081810303030301010180C04000000206E
:102A10001008080C0404040C08181020000000081A
:102A20000A341C6A080000000000000000000000DA
:102A300000001818187F1818180000000000000087
:102A4000000000000000001818083000000000001E
:102A500000000000003C000000000000000000003A
:102A60000000000000000018180000000000000234
:102A700006040C0808101020204000000000000090
:102A80003C6642475B7342663C0000000000000069
:102A900018784808080808087E00000000000000B8
:102AA0003C460606040810207E00000000000000DE
:102AB0007C0606043C0202067C00000000000000C8
:102AC0000C1C14246444FF040400000000000000F7
:102AD0007E6060607E0202067C0000000000000054
:102AE0001E306048764242623C0000000000000058
:102AF0007E0206040C0818103000000000000000E0
:102B00003C6242361C6642423C000000000000006D
:102B10003C664242661A0204780000000000000091
:102B20000000181800000018180000000000000045
:102B300000001818000000181808300000000000FD
:102B4000000004183060100C0600000000000000B7
:102B5000000000007E007E00000000000000000079
:102B60000000301804060C102000000000000030A7
:102B70001C06060618100010100000000000001CC3
:102B8000224141DDB5A5A5AF94C0403C0000000046
:102B9000181C342426627E43C1000000000000009F
:102BA0007C4642467C4242427C000000000000001D
:102BB0001E204040404040603E00000000000000F9
:102BC0007C46424343434246780000000000000038
:102BD0007E6060607E6060607E000000000000003B
:102BE0007E6060607E606060600000000000000049
:102BF0001E604040CE4242623E00000000000000E5
:102C0000424242427E424242420000000000000036
:102C10007E181818181818187E0000000000000010
:102C20007C04040404040444780000000000000054
:102C30004244485070584C444200000000000000DC
:102C400020202020202020203E0000000000000046
:102C50006266675F5B5BC1C1C100000000000000ED
:102C6000626272525A4A4E4646000000000000005E
:102C70003C6243C3C3C343623C0000000000000049
:102C80007C46424246784040400000000000000080
:102C90003C6243C3C3C343623C180F000000000002
:102CA0007C6662667C6C6466620000000000000066
:102CB0003E6040601C0602027C0000000000000034
:102CC0007F181818181818181800000000000000C5
:102CD00042424242424242623C0000000000000088
:102CE000C14342622624341C18000000000000008A
:102CF000C1C141495B5B76666600000000000000D0
:102D000043663418181C2466C3000000000000004D
:102D1000C14266341C18181818000000000000009A
:102D20007E02040C181020607E0000000000001CD1
:102D300010101010101010101010101C0000004087
:102D40002020101008080C04060200000000003CBF
:102D50000C0C0C0C0C0C0C0C0C0C0C3C00000000B3
:102D6000181C2462000000000000000000000000A9
:102D70000000000000000000000000FF0000002034
:102D80001000000000000000000000000000000033
:102D900000003C06023E42467A000000000000406F
:102DA00040405C62424242427C0000000000000061
:102DB00000001E20604060203E0000000000000275
:102DC00002023E62424242663A00000000000000F9
:102DD00000003C62427E40603E0000000000000FA8
:102DE0001810107E101010101000000000000000DD
:102DF00000003F66426658403E43423C00000040AF
:102E000040405C6242424242420000000000001822
:102E100018007808080808087E0000000000000478
:102E20000C007C040404040404040C78000000601A
:102E30006060626C78706864620000000000007876
:102E400008080808080808087E00000000000000C4
:102E50000000764B4B4B4B4B4B000000000000003A
:102E600000005C624242424242000000000000005A
:102E700000003C62424342623C000000000000004F
:102E800000005C62424242427C4040400000000040
:102E900000003E62424242663A0202020000000026
:102EA00000006E726360606060000000000000005F
:102EB00000003E20203C06027C00000000000000D4
:102EC0001010FE10101010101E0000000000000076
:102ED00000004242424242663A0000000000000008
:102EE000000043426624341818000000000000006F
:102EF0000000C1C15B5A5E66660000000000000071
:102F0000000062261C181C26620000000000000061
:102F1000000043426624341C181830E00000000012
:102F200000007E060C1810207E0000000000000E3D
:102F300018101010307010101010180E0000080833
:102F400008080808080808080808080800000030F1
:102F5000180808080C0E08080808183000000000BF
:102F600000000000714B0600000000008C2F0008DC
:102F700000000020B4000000EC18000840300008F9
:102F8000B4000020CC480000FC180008000000003D
:102F900000000000000000000000000000A000A0F1
:102FA00000000000000000000600F00040010000EA
:102FB000FFFF00002C0000207C2900080800100002
:102FC0000000000000A0000002040608000000004D
:102FD00001020304010203040607080900000000BF
:102FE00000000000000000000000000000000000E1
:102FF00000000000000000000000000000000000D1
:1030000000000000000000000000000004000000BC
:10301000000000000000000000000000AAAAAAAA08
:1030200000000000000000000000000000000000A0
:103030000000000000000000000000000000000090
:0400000508000131BD
:00000001FF
