:020000040800F2
:10000000B04A0020DD0100082B170008610F00082E
:1000100029170008D50A0008091F00080000000081
:100020000000000000000000000000004501000882
:10003000230C000800000000890100081D1D0008B5
:10004000F7010008F7010008F7010008D5190008BA
:10005000F7010008F7010008F7010008F7010008A0
:10006000F7010008F7010008F7010008F701000890
:10007000F7010008F7010008F7010008F701000880
:10008000F7010008F7010008F7010008F701000870
:10009000F7010008F7010008F7010008F701000860
:1000A000F7010008F7010008F7010008F701000850
:1000B000F7010008F7010008F7010008F701000840
:1000C000F7010008F7010008F7010008F701000830
:1000D000F7010008F7010008F7010008F701000820
:1000E000F7010008F7010008F7010008F701000810
:1000F000F7010008F7010008F7010008F701000800
:10010000F7010008F7010008F7010008F7010008EF
:10011000F7010008F7010008F7010008F7010008DF
:10012000F7010008F7010008F7010008F7010008CF
:10013000DFF80CD000F078FB00480047A92A00083F
:10014000B04A0020224B19680868B0E8F00F80F32D
:100150000988BFF36F8F4FF0000080F311884EF0D5
:100160000D0E70470000000006480068006880F32C
:10017000088862B661B6BFF34F8FBFF36F8F00DFA1
:1001800000BF00BF08ED00E0EFF30980BFF36F8F01
:100190000F4B1A6820E9F00F106008B54FF0BF0050
:1001A00080F31188BFF34F8FBFF36F8F03F09EFC76
:1001B0004FF0000080F31188BDE808401968086816
:1001C000B0E8F00F80F30988BFF36F8F704700BF6E
:1001D00084010020EFF30580704700000648804747
:1001E00006480047FEE7FEE7FEE7FEE7FEE7FEE71C
:1001F000FEE7FEE7FEE7FEE7491D000831010008C3
:1002000040EA01039B0703D009E008C9121F08C098
:10021000042AFAD203E011F8013B00F8013B521E18
:10022000F9D27047D2B201E000F8012B491EFBD28F
:1002300070470022F6E710B513460A4604461946F1
:10024000FFF7F0FF204610BD2DE9FE4F804681EA02
:100250000300C00F0C46009021F0004123F0004540
:10026000B8EB0200A94105D24046214690461C4603
:100270000B46024623F00040104347D0270DC7F33A
:100280000A00C3F30A510290401A019040286BDA29
:10029000C3F3130040F4801B0098924620B1002362
:1002A000D2EB030A63EB0B0B01985946C0F14002F5
:1002B000504600F0D4F906460D4650465946019A7C
:1002C00000F0DCF910EB08006141002487EA1152CC
:1002D00084EAE7731A4340D0009A62B3019A012A74
:1002E0004FEA075215DC001B61EB02014FF00042A0
:1002F00002EA0752CDE90042001C41F58011324666
:100300002B4600F013FA03B0BDE8F08F40462146BB
:10031000F9E7001B61EB0201001C41F58013001896
:100320005B412018A2F5001747EB030140EAD570A6
:10033000B6196D4111E06D084FEA360645EAC07501
:100340004FEA0752001B61EB0201001C41F58011CE
:1003500049084FEA30000019514132462B4603B09C
:10036000BDE8F04F00F0D3B900980122400000230F
:10037000D0EB020263EBE073009821464FEAE07491
:10038000B8EB000061EB0401E9E783F000435BE7B1
:1003900081F0004158E72DE9FE4F81EA030404F0A3
:1003A000004421F0004100944FF0000B23F0004383
:1003B00050EA01045ED052EA03045BD0C3F30A544E
:1003C000C1F30A552C44A4F2F3340194A0FB025467
:1003D000C1F3130141F48011C3F3130343F48013F9
:1003E00001FB024400FB034E840A970A44EA81544D
:1003F00047EA8357A4FB076802958D0A05FB07852A
:100400004FEA932C04FB0C542705029D4FEA065833
:1004100047EA1637B5EB08056EEB070C870E920E10
:1004200047EA811742EA8312A7FB0201B6EB0B01F0
:1004300064EB00042B0D43EA0C335E1844EB1C50B4
:10044000DA465146E7FB0201C5F313044FEA0B33CA
:1004500043EA14534FEA0432019C43EA0603A4F131
:100460000C040294009CCDE900B400F05FF903B0E5
:10047000BDE8F08F00200146F9E72DE9F04D81EA53
:10048000030404F0004B21F0004514464FF0000A2D
:1004900023F0004150EA050220D054EA01021DD0A9
:1004A000C5F30A570246C5F31303C1F31300C1F3A2
:1004B0000A5640F4801543F48013A7EB0608101B7E
:1004C000D64608F2FD3873EB050002D308F10108A7
:1004D00001E092185B41B8F1000F03DA00200146F9
:1004E000BDE8F08D00204FF48011064684460EE0F2
:1004F000171B73EB050705D3121B63EB05030643BC
:100500004CEA010C49084FEA300092185B4150EA6E
:100510000107EDD152EA030012D082EA040083EA17
:100520000501084305D0101BAB4106D20122002370
:1005300006E000224FF0004302E06FF0010253108A
:100540001AEB06004CEB085110EB0A0041EB0B01D3
:10055000BDE8F04D00F0DBB80EB540F2334102913A
:100560000021CDE900110A460B4600F0DFF803B088
:1005700000BD00F0004230F000400AD0C10D01F58E
:100580006071C0F3160042EA0151C20840071143EE
:10059000704700200146704701F0004330B421F05D
:1005A000004150EA010206D00A0DA2F56072C1F3C3
:1005B0001301002A02DC30BC00207047440F44EADB
:1005C000C104C100E01830BC00EBC25000F068B8B4
:1005D00030B50B46014600202022012409E021FA13
:1005E00002F59D4205D303FA02F5491B04FA02F510
:1005F0002844151EA2F10102F1DC30BD2DE9F05FA7
:100600000546002092469B46884606468146402481
:100610001BE0284641464746224600F017F953465C
:100620005A46C01A914110D311461846224600F08E
:1006300016F82D1A67EB01084F46224601200021CB
:1006400000F00DF817EB00094E41201EA4F1010443
:10065000DFDC484631462A464346BDE8F09F202A63
:1006600004DB203A00FA02F1002070479140C2F109
:10067000200320FA03F3194390407047202A06DB39
:10068000CB17203A41FA02F043EAE07306E041FA60
:1006900002F3D040C2F1200291400843194670474E
:1006A0000029A8BF7047401C490008BF20F0010086
:1006B000704710B4B0FA80FC00FA0CF050EA010464
:1006C00004BF10BC704749B1CCF1200421FA04F4F6
:1006D00011FA0CF118BF012121430843A3EB0C01CF
:1006E000CB1D4FEA00614FEA102042BF002010BC32
:1006F000704700EBC35010440029A4BF10BC7047E2
:10070000401C490008BF20F0010010BC704710B524
:10071000141E73F1000408DA401C41F10001921824
:100720005B411A4301D120F0010010BD2DE9F04DCD
:1007300092469B4611B1B1FA81F202E0B0FA80F222
:1007400020329046FFF78BFF04460F4640EA0A002E
:1007500041EA0B0153465A46084313D0114653EA67
:10076000010019D0C8F14002504600F06FF805466C
:100770000E46504659464246FFF771FF084305D0E2
:10078000012004E020463946BDE8F08D00200543F5
:1007900046EAE0762C4337430A986305E40AA0EB67
:1007A00008000022FD0A44EA47540A3002D500201E
:1007B0000146E9E7010510196941DDE9084500191D
:1007C0006941BDE8F04DA2E7C1F30A52C1F313013C
:1007D00040F2FF3341F480119A4202DA00200146D0
:1007E000704740F233439A42A2F2334202DC524253
:1007F00000F02CB8FFF733BF30B5041E71F10004D0
:1008000004DB4FF00044404264EB0101141E73F11D
:10081000000405DB1C464FF00043524263EB040327
:10082000994208BF904230BD064C074D06E0E06893
:1008300040F0010394E8070098471034AC42F6D327
:10084000FFF77AFC504B0008704B0008202A04DBAD
:10085000203A21FA02F00021704721FA02F3D04039
:10086000C2F12002914008431946704770B58C18B8
:1008700010F8015B15F0070301D110F8013B2A11B4
:1008800006D110F8012B03E010F8016B01F8016BA1
:100890005B1EF9D12B0705D40023521E0DD401F89D
:1008A000013BFAE710F8013BCB1A921C03E013F866
:1008B000015B01F8015B521EF9D5A142D8D300209B
:1008C00070BD002904D0816841F00101816070474A
:1008D000816821F0010181607047002904D081689E
:1008E00041F4807181607047816821F4807181607A
:1008F0007047014600208968490700D501207047EC
:10090000014600208968090700D5012070470000D2
:1009100010B542680E4B1A400C790B6842EA04226B
:100920001343436082680B4B1A40D1E902432343CF
:100930004C7942EA440213438360C26A22F4700293
:10094000097C491EC9B242EA0151C16210BD0000D2
:10095000FFFEF0FFFDF7F1FF70B5072609290AD960
:10096000C568A1F10A0404EB4404A640B543A340C2
:100970001D43C56007E0056901EB4104A640B5438E
:10098000A3401D4305611F23072A09D2446B521E51
:1009900002EB820293409C4391400C43446370BD40
:1009A0000D2A09D2046BD21F02EB820293409C43B2
:1009B00091400C43046370BDC46A0D3A02EB82029D
:1009C00093409C4391400C43C46270BD816841F0E8
:1009D000080181607047002904D0816841F4A001BA
:1009E00081607047816821F4A0018160704781684F
:1009F00041F00401816070470649002804D008686E
:100A000040F4000008607047086820F400000860A7
:100A1000704700000824014008B50121102000F0B3
:100A2000BFFE0220ADF8000000208DF803006946EB
:100A3000014800F06EF908BD0010014010B586B005
:100A40000121480200F0ACFE0020019001218DF848
:100A500008108DF809104FF46021039104900220D2
:100A60008DF814001A4C01A92046FFF751FF4FF4EE
:100A7000404000F06FFE0523012210212046FFF7C1
:100A80006BFF072302220B212046FFF765FF0120A1
:100A9000FFF7B2FF01212046FFF71FFF012120468B
:100AA000FFF70FFF2046FFF791FF2046FFF728FFD3
:100AB0000028FAD12046FFF79AFF2046FFF719FFDA
:100AC0000028FAD101212046FFF785FF06B010BDAE
:100AD00000240140FEE7002904D0016841F0010133
:100AE0000160704701684FF6FE7211400160704767
:100AF00001684FF6FE721140016000210160416003
:100B00008160C1603649364A0839904204D148684C
:100B100040F00F0048607047314A1432904204D1CF
:100B2000486840F0F000486070472D4A28329042F3
:100B300004D1486840F4706048607047284A3C32ED
:100B4000904204D1486840F4704048607047244A9D
:100B50005032904204D1486840F470204860704799
:100B60001F4A6432904204D1486840F470004860E3
:100B700070471B4A7832904204D1486840F0706058
:100B800048607047174A111F904204D1086840F02E
:100B90000F0008607047134A1432904204D108686D
:100BA00040F0F000086070470E4A2832904204D1AD
:100BB000086840F47060086070470A4A3C3290420E
:100BC00004D1086840F4704008607047054A50320C
:100BD0009042FAD1086840F4702008607047000025
:100BE000080002400804024030B5026847F6F0737E
:100BF0009A430C6A8B682343D1E904452C43234371
:100C00008C692343CC6923434C6A23438C6A234376
:100C100013430360CA6842600A6882604968C16021
:100C200030BD70478000A0F1C040002904D00168A9
:100C300041F00101016070470168024A1140016002
:100C400070470000FEFF0F0010B5D0E901121143FC
:100C5000D0E903231A4311434269114382691143C6
:100C6000C2691143026A1143426A1143826A114305
:100C7000C26A1143026B114302689200A2F1C042A2
:100C800011608168082907D101688900A1F1C0417C
:100C90000A6842F040020A60416BD1E9002342EA4F
:100CA00003128B688C891B0243EA04431A430B8AA4
:100CB00042EA03520B7D896942EA03620A430168F2
:100CC000491C8900A1F1C0410A60C16AB1F5804F99
:100CD00008D000686FF070418000A0F1C040C0F8FB
:100CE000041110BD816BD1E9002342EA03128B6825
:100CF0000C8A1B0243EA04531A430B7D896942EABA
:100D0000036200680A438000A0F1C040C0F80421DB
:100D100010BD2DE9F0410022CC7804F00F03E40669
:100D200001D58C7823430C784FF00F0714F0FF0F98
:100D30004FF0010C1CD005680CFA02F40E88264016
:100D4000A64211D1960007FA06F825EA080503FA2B
:100D500006F848EA0505CE78282E02D0482E02D0A3
:100D600002E0446100E00461521C082AE4D30560FB
:100D70000A88FF2A1ED94568002202F108060CFAEB
:100D800006F40E882640A64210D1960007FA06F80F
:100D900025EA080503FA06F848EA0505CE78282E64
:100DA00000D14461CE78482E00D10461521C082A3B
:100DB000E3D34560BDE8F08108B50121142000F0BF
:100DC000EFFC0120ADF8000004208DF80300694617
:100DD0000548FFF79EFF4FF40050ADF8000069464C
:100DE0000248FFF796FF08BD0008014000100140CF
:100DF00038B50121082000F0D3FC10208DF8030045
:100E000003208DF802000120ADF800000F4C694668
:100E10002046FFF77EFF2021ADF8001069462046EE
:100E2000FFF777FF0221ADF8001069462046FFF773
:100E300070FF0121204600F014F82021204600F028
:100E400010F80221204600F00CF838BD000C0140DB
:100E50000246002092680A4200D00120704741619A
:100E6000704701617047000070B505460C460F4E93
:100E70003078002803D100F00DFE01203070220AE6
:100E8000E1B2A13AC2EB021000EB421001EB4000CC
:100E9000A1380102C81701EB5070C110044820228C
:100EA0000144284600F0CCFD002070BD2800002041
:100EB0000030180010B501210848FFF7C9FF0128CC
:100EC00008D04FF400510648FFF7C2FF012803D0B5
:100ED000002010BD012010BD022010BD00080140FF
:100EE0000010014010B50E480088FFF735FB4FF0A9
:100EF00066320C4BFFF74FFAFFF74EFBFFF739FB5B
:100F0000094A0A4BFFF744FA094A0A4BFFF7B5FAB8
:100F10000022094BFFF798F9BDE81040FFF73CBBF2
:100F20000A00002066664A3FE17A14AE47E1F63FC8
:100F300022FDF675E09C713F0000394010B506486F
:100F40004088FFF709FB4FF06632044BFFF723FAA6
:100F5000BDE81040FFF720BB0A00002066664A3F4C
:100F6000FEE70000054A002803D040211046FFF7A5
:100F700076BF40211046FFF774BF000000200140FB
:100F800070B514461D462B46224600F04FFA044920
:100F900004FB05F00989BDE8704000F032B900009B
:100FA0001000002001B502E00098401E009000985B
:100FB0000028F9D108BD00002DE9F04188B01446A1
:100FC00010231A4600F032FA2C204FF0D843188034
:100FD00021466846FFF748FF0021124DEC464FF6C8
:100FE000FF784FF400474FF0DA461CF8110008EA8A
:100FF00000200CEB410254780443002027FA00F350
:10100000234202D0EA88328001E02A893280401CE3
:10101000C0B21028F2D3491CC9B21029E5D308B0D8
:10102000BDE8F08110000020F0B5203A97B2174ECD
:10103000F568AA88EB8802FB03F44FEAE47C04EB32
:101040005C74C4F3C7042D6807FB045500F0EEF987
:101050002C204FF0D841088000214FF0DA4712E0F1
:10106000002080236A5C23FA00FC12EA0C0F02D0F5
:10107000F2883A8001E032893A80401CC0B20828E8
:10108000F0D3491CC9B2A142EAD3F0BD1000002040
:101090002DE9F04105460E4600241F4F37E07E2A19
:1010A0001AD8F8687B8881882144994203D90024A2
:1010B000C18829448DB2C088B9882844884201D9A2
:1010C0000024002529462046FFF7AEFFF8688088F7
:1010D000204484B2761C1AE0798804F1100088421A
:1010E00002D900241035ADB2B98805F1100088424C
:1010F00001D9002400253088010201EB102082B2C2
:1011000029462046FFF758FF1034A4B2B61C3278A7
:10111000002AC4D1BDE8F081100000202DE9F04183
:1011200004460D4616461F4F37E07E2A1AD8F86847
:101130007B8881882144994203D90024C1882944AD
:101140008DB2C088B9882844884201D9002400257E
:1011500029462046FFF768FFF8688088204484B25B
:10116000761C1AE0798804F11000884202D9002424
:101170001035ADB2B98805F11000884201D90024BC
:1011800000253088010201EB102082B2294620465A
:10119000FFF712FF1034A4B2B61C3278002AC4D173
:1011A000BDE8F0811000002000B597B001210802D1
:1011B00000F0DAFA012001900420039080060790E5
:1011C0000020029004900590069006210891099055
:1011D00008210A9110210B910C900E900F90109005
:1011E0000902119112901390149001A81590169075
:1011F00008A8FFF729FD01210620FFF713FD17B00E
:1012000000BD10B500222C234FF0D84423804FF0AE
:10121000DA4301E01980521C8242FBD310BD00006A
:101220002DE9F84F01214FF4B07000F0B9FA032412
:101230008DF8024018258DF803504FF48047ADF823
:10124000007069465148FFF764FD4FF40048ADF85F
:10125000008069464D48FFF75CFD0120ADF80000B5
:1012600069464A48FFF755FD0220ADF8000069467F
:101270004648FFF74EFD8020ADF80000694644481F
:10128000FFF747FD4FF48079ADF80090694640487C
:10129000FFF73FFD4FF4007AADF800A069463C48E7
:1012A000FFF737FD4FF4806BADF800B06946384862
:1012B000FFF72FFDFE10ADF8006069463448FFF7D8
:1012C00028FD7000ADF8000069463148FFF721FDA8
:1012D000B000ADF8000069462D48FFF71AFDADF8E3
:1012E000007069462A48FFF714FDADF80080694692
:1012F0002748FFF70EFDADF8009069462348FFF739
:1013000008FDADF800A069462048FFF702FDADF8E2
:1013100000B069461D48FFF7FCFC8DF802408DF8CF
:1013200003501025ADF8005069461848FFF7F1FC4E
:101330002020ADF8000069461448FFF7EAFC2802B7
:10134000ADF80000134F69463846FFF7E2FC042071
:10135000ADF8000069460E48FFF7DBFC8DF803503E
:101360008DF80240ADF8006069463846FFF7D1FCC1
:101370008DF803508DF802404020ADF8000069461A
:101380003846FFF7C6FCBDE8F88F000000140140A6
:10139000001801400020014010B507282CD8184A39
:1013A0001070C4074FF0F0014FF4A07325D05380A4
:1013B000918036214B061980082141EA40114FF0F7
:1013C000DA4001802A2119800021018001805188A2
:1013D000491EC1F307240480C9B201802B21198062
:1013E0000021018001809188491EC1F307220280FB
:1013F000C9B201802C20188010BD51809380D8E79D
:101400001000002010B5FFF70BFFFFF7CDFE012005
:10141000FFF7A8FD00F0E4F800F026F80248007895
:10142000BDE81040FFF7B8BF1000002070B52A24B7
:101430004FF0D8463480050A4FF0DA442580C5B213
:1014400025801044401E020A2280C0B220802B203A
:101450003080080A2080C8B22080C818401E010AC7
:101460002180C0B2208070BD10B5CF204FF0D8448D
:10147000208000214FF0DA4001808121018030215D
:101480000180ED212180642101800321018012214E
:10149000018081210180E8212180852101801021A6
:1014A000018078210180CB212180392101802C21EC
:1014B0000180002101803421018002210180F72177
:1014C000218020210180EA212180002101800180EA
:1014D000B1212180002101801B210180B6212180C2
:1014E0000A210180A2210180C021218035210180B3
:1014F000C121218011210180C52121804521018048
:101500000180C7212180A2210180F22121800021B8
:1015100001802621218001210180E02121800F21ED
:10152000018026210180242101800B2101800E21D0
:1015300001800921018054210180A82101804621D8
:1015400001800C21018017210180092101800F21D8
:1015500001800721018000210180E12121800021FB
:101560000180192101801B210180042101801021AB
:101570000180072101802A21018047210180392132
:10158000018003210180062101800180302101803A
:10159000382101800F21018036212180C82101805E
:1015A0002A2121800021018001800180EF2101801A
:1015B0002B212180002101800180012101803F2118
:1015C00001803A212180552101801120208003488B
:1015D000FFF7E8FC2920208010BD0000FCBF0200BE
:1015E00070B50A4D4FF4006421462846FFF737FCDA
:1015F00040F6FF263046FFF7D5FC21462846FFF788
:1016000030FC3046BDE87040FFF7CCBC0020014004
:1016100010B50024FFF74EFC1C4A00B190705178C1
:10162000A02909D0A023B0290DD0C02917D0F029B6
:1016300027D05370204610BD0028FBD0002010702A
:10164000B0205070F6E740B11078401CC0B2107066
:101650000228EFD3C0205070ECE75370EAE758B18E
:101660001078401CC0B210706428E3D3907840F02A
:10167000E004F0205070DDE7907840F0C004537033
:10168000D8E70028D6D15370D4E70000040000202A
:1016900070B50024FFF7BCFF194A10B100F00F012C
:1016A0001171D1780C25A02907D0A023D0290ED004
:1016B000F02920D0D370204670BDB5EB101F04D1A7
:1016C00000201070D020D070F5E70446F3E7B5EBAA
:1016D000101F05D1107940F0D004F020D070EAE757
:1016E0001078401CC0B210701928E4D3107940F073
:1016F000C004D370DFE70028DDD1D370DBE7000042
:10170000040000200148C06870470000100000205D
:10171000014AD08011817047100000200149C86043
:101720007047000010000020FEE7704702490843A0
:1017300002490860704700000000FA050CED00E067
:10174000024A1140014302480160704780FFFF1FB9
:1017500008ED00E0034A516821F440410143516023
:101760007047000000100240054A002903D051696B
:1017700001435161704751698143516170470000D5
:1017800000100240054A002903D0D1690143D1610C
:101790007047D1698143D161704700000010024059
:1017A000054A002903D0916901439161704791690D
:1017B0008143916170470000001002400C480168AD
:1017C00041F00101016041680A4A1140416001682D
:1017D000094A11400160016821F4802101604168DB
:1017E00021F4FE0141604FF41F0181607047000049
:1017F000001002400000FFF8FFFFF6FE10B5264A79
:10180000516801F00C01254B002927D0042927D06D
:10181000082927D00360516801F0F0010909204B25
:101820005C5C0168E1404160546804F4E064240AAF
:101830001C5D21FA04F48460546804F46054E40AE2
:101840001B5DD940C160526802F44042920B144BB8
:101850001B1F9A5CB1FBF2F1016110BD0360DAE776
:101860000360D8E7516801F47011536803F48033C2
:10187000022404EB914133B153689B0307D5094B14
:1018800059430160C7E7074B59430160C3E7034B66
:1018900059430160BFE700000010024000127A00C7
:1018A0007401002000093D00034600205909094A3F
:1018B00001290AD002290AD0516A03F01F0201232C
:1018C00093400B4200D0012070471168F5E7116A80
:1018D000F3E70000001002400248406800F00C00EE
:1018E0007047000000100240034A516821F0F001E7
:1018F0000143516070470000001002400C490A6823
:1019000022F480320A600A6822F480220A60B0F56C
:10191000803F07D0B0F5802F03D1086840F4A020A5
:1019200008607047086840F4803008607047000025
:1019300000100240034A516821F4E0610143516004
:101940007047000000100240034A516821F46051C2
:1019500041EAC0005060704700100240014908662B
:101960007047000000004242034B5A6822F47C1288
:10197000084310435860704700100240034A516802
:1019800021F0030101435160704700000010024044
:1019900002490A8882430A807047000004280040F8
:1019A000034800880249091F098840EA014070473E
:1019B0001C28004006490988C2B21140044A121F7F
:1019C0001288024202D009B10120704700207047FE
:1019D0000428004008B5002000900120FFF7EAFF2E
:1019E000002814D00120FFF7D3FF00F015F80848B5
:1019F0006946006802F0B4F90098002807D005494C
:101A00004FF080500860BFF34F8FBFF36F8F08BD5A
:101A10006C01002004ED00E0024801888906FCD535
:101A20007047000004280040002904D0018841F0DC
:101A3000400101807047018821F04001018070471A
:101A40002DE9F04104460F461546114E102130464F
:101A5000FFF705FA032000F079F8C7F3074000F01C
:101A600075F8C7F3072000F071F8F8B200F06EF8CF
:101A700004E0FF2000F06AF804F8010B6D1EADB21F
:101A8000F7D23046BDE8F0411021FFF7EAB9000077
:101A90000008014010B586B001210803FFF780FE61
:101AA0000121C420FFF77CFE1020ADF800000321C7
:101AB0008DF802108DF80300224C69462046FFF78E
:101AC00028F92021ADF8001018218DF8031069467F
:101AD0002046FFF71EF94021ADF800106946204668
:101AE000FFF717F98021ADF8001069462046FFF78F
:101AF00010F910212046FFF7B4F90020ADF80400DA
:101B00004FF48271ADF80610ADF808000221ADF86F
:101B10000A100121ADF80C104902ADF80E10082191
:101B2000ADF81010ADF812000720ADF81400064C07
:101B300001A9204600F04DF801212046FFF774FF6F
:101B400006B010BD00080140003001402DE9F04111
:101B50000746184C4FF480552560174E09E0206861
:101B6000411E216005D2002000F050F8C0B2BDE84F
:101B7000F0810221304600F021F80028EFD03946EC
:101B8000304600F024F8256008E021684A1E2260F3
:101B900004D2012000F03AF8C0B2E8E70121304653
:101BA00000F00CF80028F0D0304600F00EF8C0B27B
:101BB000DDE700002C00002000300140024600203C
:101BC00012890A4200D001207047808970478181C4
:101BD000704730B5028802F441530A884C88CD889A
:101BE00022438C882C4322430C8922434C89224374
:101BF0008C892243CC8922431A430280828B22F4AF
:101C000000628283098A018230BD000010B501465E
:101C100002A000F07BF9002010BD00003C3C2D46E6
:101C20004C4153482D4552524F522D3E3E20535069
:101C30004920B5C8B4FDB3ACCAB1216572726F72E8
:101C4000436F6465203D2025640A0000AFF30080E7
:101C50000CB50022019200922748016841F48031BE
:101C600001604FF4A063016801F400310091019913
:101C7000491C0191009911B901999942F3D1016868
:101C8000890302D50121009100E000920099012909
:101C900030D11A490A6842F010020A600A6822F03C
:101CA00003020A600A6842F002020A604168416069
:101CB00041684160416841F480614160416821F4BC
:101CC0007C114160416841F4E8114160016841F0D4
:101CD0008071016001688901FCD5416821F0030130
:101CE0004160416841F0020141604168C1F38101F6
:101CF0000229FAD10CBD0000001002400020024071
:101D00004FF0E021042804D0086920F004000861A5
:101D10007047086940F004000861704710B5BF20A3
:101D200080F31188BFF34F8FBFF36F8F02F09CFADF
:101D300018B104494FF080500860002080F31188EA
:101D400010BD000004ED00E010B50F48016841F03F
:101D50000101016041680D4A1140416001680C4A6F
:101D600011400160016821F480210160416821F483
:101D7000FE0141604FF41F018160FFF767FF0549D5
:101D80004FF00060086010BD001002400000FFF836
:101D9000FFFFF6FE08ED00E0002904D0818941F440
:101DA000005181817047818921F400518181704700
:101DB00010B586B001210420FFF7F2FC0121880351
:101DC000FFF7EEFC4FF40070ADF8140018208DF80A
:101DD000170003208DF81600144C05A92046FEF7C5
:101DE00098FF2115ADF8141004218DF8171005A9DE
:101DF0002046FEF78EFF4FF4E13001900020ADF851
:101E00000800ADF80A00ADF80C00ADF810000C2089
:101E1000ADF80E00064C01A9204600F013F8012190
:101E20002046FFF7B9FF06B010BD000000080140D2
:101E3000003801400246002012880A4200D00120EA
:101E40007047000030B585B004460D46208A4CF638
:101E5000FF710840E98801432182A0894EF6F31101
:101E60000840A9882A8911436A8902431143A18144
:101E7000A08A4FF6FF410840A9890143A182684624
:101E8000FFF7BCFC1D48844201D1039800E0029892
:101E9000A189090408D500EBC00101EB00102968F5
:101EA0004900B0FBF1F007E000EBC00101EB0010CE
:101EB00029688900B0FBF1F06422B0FBF2F109015E
:101EC0000B096FF018056B4300EB8300A3891D0419
:101ED0004FF0320307D503EBC000B0FBF2F000F087
:101EE0000700084306E003EB0010B0FBF2F000F03F
:101EF0000F000843208105B030BD000000380140CC
:101F0000C1F3080181807047FEE700000FB4054B64
:101F100010B503A9044A029800F0EEF810BC5DF871
:101F200014FB000009290008E40100200FB4084B4D
:101F300010B504A902AA039800F0DEF8044602A92D
:101F4000002000F070FC204610BC5DF814FB00007F
:101F50002728000802E008C8121F08C1002AFAD189
:101F600070477047002001E001C1121F002AFBD119
:101F7000704700002DE9FF5F82B00021DDE90430E9
:101F8000020DDDF840B0034318D044F61050A2F221
:101F9000FF3242431514119801281FD0A5EB0B0006
:101FA000401C5FEA000A4FF000064E4FDFF8389100
:101FB000B046504615D5CAF1000413E0119801242B
:101FC0004AA3012801D16FEA0B010298119AC0E9D6
:101FD0000031C0E9024206B0BDE8F09FCBF100003D
:101FE000DFE704460021404A491842EB0450CDE99E
:101FF000001012E0E00707D032463B464046494613
:10200000FEF7C9F98046894632463B4610461946D6
:10201000FEF7C1F906460F466410002CEAD1DDE94F
:102020000401DDE90023BAF1000F06DAFEF7B3F987
:1020300042464B46FEF7AFF905E0FEF71EFA424670
:102040004B46FEF71AFA04460E460022284BFEF7CE
:10205000D3FB03D84FF0FF30014607E00022254BA9
:1020600020463146FEF7F0F8FEF7AEFB102409E0FB
:10207000002C0ADB0A220023FEF7C0FA039B303251
:102080001A55641E50EA0102F2D1641C039AC4F18D
:1020900011031444119A012A03D0012208430DD1DF
:1020A0000AE0084304D000204FF0110B119072E7B2
:1020B000A3EB0B056D1E0DE05B4504DD4FF0000248
:1020C00005F1010504E003DA4FF00002A5F1010576
:1020D000002AECD002981199C0E90231C0E900450C
:1020E00079E70000000014400000F03F30000000DD
:1020F0000000F0430000E03F2DE9FF4F95B09B4604
:102100008946064600250FE2252877D10024274678
:10211000F84A0121059400E0044316F8013F203BF2
:1021200001FA03F01042F7D130782A2811D06FF06D
:102130002F033078A0F13002092A16D8059A44F00E
:10214000020402EB820203EB42021044761C05906B
:10215000EFE759F8042B0592002A03DA504244F4C1
:102160000054059044F00204761C30782E2816D1D5
:1021700016F8010F44F004042A280DD06FF02F0246
:102180003078A0F13003092B09D807EB870302EB65
:102190004303C718761CF3E759F8047B761C3078A4
:1021A0006C280FD006DC4C2817D068280DD06A2880
:1021B00014D104E0742810D07A280FD10DE044F433
:1021C00000140AE044F4801401E044F440147278EE
:1021D000824202D104F58014761C761C3078662881
:1021E0000BD013DC582877D009DC002875D045289F
:1021F000F6D04628F4D047281AD19DE118E063288C
:1022000035D0642879D0652812D195E1702873D033
:1022100008DC6728F1D069286FD06E280DD06F28B0
:1022200006D1B5E073282CD0752875D0782874D0E5
:102230005A46179990476D1C75E1C4F30250022865
:1022400009D003280DD0D9F8001004280DD00D6056
:1022500009F1040967E1D9F80010EA17C1E9005251
:10226000F6E7D9F800100D80F2E70D70F0E719F8E5
:10227000041B8DF8001000208DF80100EA460120B3
:1022800003E059F804AB4FF0FF3061074FF0000155
:1022900002D40DE008F101018846B9420FDA804509
:1022A000F8DB1AF808100029F4D108E008F1010160
:1022B00088468142FADB1AF808100029F6D1059801
:1022C0005B46A0EB080721463846179A00F094FABF
:1022D000284400EB080507E04DE029E10DE01AF87D
:1022E000010B5A4617999047B8F10108F7D25B469F
:1022F00021463846179A13E142E00A220092C4F3BD
:1023000002524FF0000A022A08D059F804CB032ADF
:102310004FEAEC710AD00DE029E02AE009F107014B
:1023200021F00702F2E802C1914609E00FFA8CFCA5
:102330004FEAEC71042A03D14FFA8CFC4FEAEC719E
:10234000002907DA0A460021DCF1000C61EB0201EA
:102350002D2202E0220504D52B228DF80420012233
:1023600003E0E20701D02022F7E7904659E00A2176
:1023700002E010220DE010214FF0000A00910BE066
:1023800010224FF0000A44F004040827009203E0F2
:1023900008224FF0000A0092C4F30252022A05D02C
:1023A00059F804CB0021032A08D009E009F10701FC
:1023B00021F00702F2E802C1914605E01FFA8CFC09
:1023C000042A01D10CF0FF0C4FF00008220728D599
:1023D000702806D0009B83F0100353EA0A0305D04F
:1023E0000EE040228DF80420012208E05CEA0102A0
:1023F00006D030228DF804208DF805000222904688
:10240000009B83F0080353EA0A030AD15CEA010245
:1024100001D1620705D530228DF804204FF0010864
:102420007F1E582804D034A003900EA802900DE01F
:1024300036A0F9E753466046009AFEF7DFF8844677
:102440000398825C0298401E029002705CEA0100D0
:10245000F0D1029806A9081A00F1200A600702D5F7
:1024600024F4803400E00127574502DDA7EB0A0081
:1024700000E0002000EB0A01009005984144401A5A
:102480000590E00306D45B462146179A059800F0B4
:10249000B3F90544002706E001A85A46C05D179924
:1024A00090476D1C7F1C4745F6DBE0030CD55B466F
:1024B0002146179A059800F09FF9054404E0302062
:1024C0005A46179990476D1C0099481E00900029A4
:1024D000F5DC08E0029802995A460078491C0291FE
:1024E000179990476D1CBAF10001AAF1010AF1DCBD
:1024F00065E10000092801003031323334353637C8
:10250000383961626364656600000000303132333F
:1025100034353637383941424344454600000000DF
:1025200000F058F90544761C307800287FF4ECADB3
:1025300019B02846BDE8F08F620700D4062709F1DC
:10254000070222F0070CFCE80223E14603F00048F2
:102550005FEA080C02D00FF2702C0DE05FEA045C19
:1025600002D50FF2682C07E05FEAC47C02D00FF2BC
:10257000602C01E0AFF2700C4FF0FF3823F0004305
:10258000CDF850C065280CD006DC452809D0462877
:102590001DD047283DD13DE0662818D067287ED160
:1025A00038E00021112F01DB112000E0781CCDE97B
:1025B000000106A90EA8FFF7DDFCDDE90F010E9A68
:1025C00003910021009207F1010A04914DE04FF0C0
:1025D00000400097CDE9011006A90EA8FFF7CAFC3C
:1025E000DDE90F0203920E9B11990022DDF80CA089
:1025F0000093049211B9791C00EB010AB7EB0A00B1
:1026000004D4C0F1FF3007F1010A0490AAEB0700DF
:10261000019044E0012F00DA01270021112F01DD94
:10262000112000E03846CDE9000106A90EA8FFF709
:10263000A1FCDDE90F010E9A0391002104910092A3
:10264000BA4621070CD40399514500DA8A46BAF1FB
:10265000010F05DD009AAAF10101515C302908D073
:10266000B84202DA10F1040F06DA0121CDE90110B7
:1026700015E0AAF10101E9E7002805DC049901440D
:102680000491AAEB000102E0411C514500DD8A469D
:102690000499401A401C01904FF00040029020071E
:1026A00004D40198504501DBCDF8048000208DF85A
:1026B0004F0002980DF14F07B0F1004F25D02B20AD
:1026C0000E9002984FF0020800280CDA4042029067
:1026D0002D200E9007E00A210298FDF779FF303196
:1026E000029007F8011DB8F10001A8F10108F2DC21
:1026F00002980028EFD1791E0E980870307800F00B
:10270000200040F0450007F8020D12A8C01B00F1A0
:1027100007081498007800B1012000EB0A01019825
:1027200001EBE07105984144401A401E0590E0031A
:1027300006D45B462146179A059800F05DF80544DB
:102740001498007818B15A46179990476D1CE00309
:1027500024D55B462146179A059800F04DF80544AC
:102760001CE00498002807DBDDE90301884203DD53
:102770000098405C179901E0179930205A4690471D
:10278000049805F10105401C04900198401E019039
:1027900004D12E205A46179990476D1CBAF10001BA
:1027A000AAF1010ADDDC05E017F8010B5A4617997A
:1027B00090476D1CB8F10001A8F10108F4DC5B46FC
:1027C0002146179A0598ABE62D0000002B0000006B
:1027D000200000002DE9F041044600251E46174662
:1027E000880404D405E039462020B0476D1C641EDF
:1027F000F9D52846BDE8F0812DE9F04104460025D1
:102800001E469046C80301D5302700E020278804E3
:1028100004D505E041463846B0476D1C641EF9D525
:102820002846BDE8F0810A68531C0B6010707047A1
:1028300010B5FEF7F1F8FEF701F9BDE8104000F021
:1028400035B800000EB50020029001904FF47A7563
:1028500001F004FD009000220421022001F09AF909
:102860000D4C2060FFF7E4FFFEF768FB0290FEF7D7
:1028700039FB0190206850B100231A4601A901F0EC
:10288000F3F900231A4602A9206801F0EDF9294660
:10289000684601F0E5FBE7E76401002070477047F8
:1028A00070477047704770477047000010B58CB094
:1028B00001210846FEF758FF104C2046FEF718F994
:1028C0000F4801900F4802900021039102220492C8
:1028D000D201079292000892059180200690202054
:1028E000099000020A900B9101A92046FEF77CF99D
:1028F00001212046FEF7EFF80CB010BD08000240A1
:102900004C2401400A00002070B50446064DE1B297
:102910002846FFF7F5FA80212846FFF78BFA0028B2
:10292000F9D0204670BD0000003801407047704764
:102930001FB501F093FC03900025029501210022B0
:10294000084601F027F91A4E30601A4F1A4CFEF76C
:102950009FFE02900246009504230021386801F092
:10296000ADFB00231A4602A9306801F07DF99DF8FD
:102970000800B8B96088401C80B26080A0F5306162
:10298000B8390FD1DFF83480D8F8000001F012F820
:102990000120CDE900080023C82209A10B4801F05D
:1029A0002BFB6580142103A801F05AFBCFE7000040
:1029B000600100204C010020000000205801002090
:1029C0004D454E555F5461736B0000003D2D00086E
:1029D00010B5FEF717FD0620FEF7DEFC0848FEF7EF
:1029E0009DFE00214FF47840FEF792FE054800213D
:1029F000038805480288BDE810400846FEF7C0BAC3
:102A00002000002014000020120000201CB5DFF878
:102A10009080012520264FF0FF39A8F104040227F9
:102A2000002201AB11461046CDF8009001F0C2FB28
:102A30000128F5D19DF80400D2281ED006DCC1285B
:102A40000CD0C2280FD0D12804D111E0E1281AD02F
:102A5000E2281ED0266025602760E1E7C8F8006004
:102A600025602760DCE72660C8F800502760D7E7BC
:102A700026602560C8F80070D2E7C8F80060C8F882
:102A800000502760CCE7C8F800602560C8F80070E7
:102A9000C6E72660C8F80050C8F80070C0E700001C
:102AA000140C0140704700001CB500F08DFB1A4863
:102AB0000124CDE900400023322218A11A4801F078
:102AC0009BFA1A480221CDE900100023322218A1F6
:102AD0001A4801F091FA1A480023CDE90040642217
:102AE00018A11B4801F088FA1A480023CDE90040DC
:102AF000C82219A11B4801F07FFA1B480321CDE928
:102B000000100023642219A11B4801F075FA00F09F
:102B1000BDFF00201CBD00004C0100204C45445F5F
:102B20005461736B000000000D2A00085001002062
:102B30004B45595F5461736B000000003129000858
:102B4000540100204144435F5461736B0000000056
:102B500045280008580100204D454E555F546173CB
:102B60006B0000003D2D00085C0100205254435FC3
:102B70005461736B000000009D33000830B5A9B0AC
:102B8000484800210388484802880846FEF7F8F9BB
:102B9000464C002060702890279034211AA8FDF739
:102BA00048FB34210DA8FDF744FB34216846FDF7AE
:102BB00040FB3E4800F0BEFF60702178012903D140
:102BC000FF212170E1286AD0394D002227A9286809
:102BD00001F0FAF8002228A9286801F0F5F82898F1
:102BE000FDF7C7FC02460B4632A11AA8FFF79EF973
:102BF0002798FDF7BEFC02460B4632A10DA8FFF751
:102C000095F9FEF77FFDC0884FF6FF7101EA80005D
:102C10001AA9FEF73DFAFEF775FDC0880DA900EB75
:102C2000800080B2FEF734FAFEF76CFDC08829A15F
:102C3000C0EBC00080B2FEF72BFAFEF763FDC08840
:102C400029A100EBC00080B2FEF722FAFEF75AFD80
:102C5000C08800EB400101EBC00080B227A1FEF765
:102C600017FAFEF74FFDC08800EB800101EBC000B2
:102C700080B226A1FEF70CFAFEF744FDC08827A11A
:102C8000C0EB001080B2FEF703FAFEF73BFDC088F0
:102C900026A100EB001080B2FEF7FAF989E729B00F
:102CA000012030BD14000020120000204801002047
:102CB00064010020B5E7D1B9D6B5A3BA252E316697
:102CC00000000000BBB7BEB3CEC2B6C8A3BA252E63
:102CD000316600004B455931B5A5BBF7C9CFB7AD3B
:102CE000B2CBB5A5000000004B455932B5A5BBF7E6
:102CF000CFC2B7ADB2CBB5A5000000004B455931EE
:102D0000CBABBBF7CFF2D7F3000000004B455932F5
:102D1000B5A5BBF7CFF2D3D2000000004B45593127
:102D2000B3A4B0B4C8B7B6A8000000004B455932F0
:102D3000B3A4B0B4CDCBB3F600000000054C002026
:102D40002070054D207805EBC0004068804720705A
:102D5000F8E70000000000203000002070477047B6
:102D600070B50F48002103880E4802880846FEF718
:102D700007F90D4C00206070FF250B4800F0DAFECB
:102D800060702178012902D12570E12806D0FEF774
:102D9000B9FC06A10020FEF77BF9EEE7022070BD2A
:102DA000140000201200002048010020C7EBCAE4F4
:102DB000C8EBCBC4CEBBCAFDD7D6C3DCC2EBA3BA2B
:102DC000000000002DE9F04104460F461E4DEE685C
:102DD0002868001D00F05AFD38B9286890F82C10BA
:102DE00001208840296981432961601C15D1A7B160
:102DF000164948682A68906082682B68DA602A68F9
:102E00008368121D5A602A68121D82602868416119
:102E10000868401C0860BDE8F081344428684460BC
:102E2000B44206D22968E86B091DBDE8F04100F004
:102E300055BD2968A86B091D00F050FDA86A8442A1
:102E4000E9D2AC62E7E70000840100209C02002088
:102E500070B5044600F066FD244DA868401CA860CB
:102E6000286810B1686938B10CE02C60A8680128A6
:102E700008D100F027F905E02868E16AC06A8842B5
:102E800000D82C60686A401C6862E06A01212A69E7
:102E9000814011432961164A00EB800002EB80005B
:102EA0004068A0608168E1608368211D596081608D
:102EB000E06A00EB800002EB8001616152F82010B3
:102EC000491C42F8201000F03BFD686900280CD036
:102ED0002868E16AC06A884207D206494FF08050EC
:102EE0000860BFF34F8FBFF36F8F70BD8401002068
:102EF000E801002004ED00E070B50C4D0C4E11E02F
:102F000000F010FDF068C468201D00F0BFFCA86848
:102F1000401EA8606868401E686000F011FD2046F1
:102F200000F04AF868680028EAD170BD84010020EA
:102F30008802002030B40B46026C002A0CD0C16815
:102F40001144C1608468A14201D30168C160C168B5
:102F500030BC1846FDF754B930BC70472DE9F0413C
:102F6000044617460026A56B226C002A1FD07FB1AD
:102F7000E068FDF745F9E168206C091AE160226814
:102F8000914202D2A168081AE060022F0DD00EE033
:102F90006068FDF735F9216C606808446060A168DD
:102FA000884204D32068606001E005B16D1E6D1C8D
:102FB000A5633046BDE8F08110B50446206B00F0F3
:102FC000CBFC2046BDE8104000F0C6BC4FF4884161
:102FD0000E48420706D0C01D20F007000B49411AD9
:102FE000C1F588410A4B186000225A600144083933
:102FF00021F00701143B19604A600A600A1A426016
:10300000016040689860586070470000B00200207E
:10301000DC010020074E4FF08054074DFFF76CFF96
:1030200030680128FAD92C60BFF34F8FBFF36F8F40
:10303000F4E70000E801002004ED00E003460098FA
:10304000002905D00260C3630164012100F0C2BD04
:103050000060F8E72DE9F0478146DDE908560A9C53
:103060009846521E206B00EB820020F007070029D3
:103070000CD0002023180A5C83F834200A5C12B1BB
:10308000401C1028F6D3002084F84300052D00D3FF
:103090000425E562201D00F01EFC04F1180000F07C
:1030A0001AFC2461C5F10500A061646242464946EC
:1030B000384600F065F92060002E00D03460BDE88D
:1030C000F087000070B50024124D04EB840005EB7E
:1030D000800000F0F5FB641C052CF6D30D4864302D
:1030E00000F0EEFB0B48783000F0EAFB09488C302A
:1030F00000F0E6FB0748A03000F0E2FB0548B430E2
:1031000000F0DEFB03490448643181631431C1637C
:1031100070BD0000E80100208401002030B5134993
:1031200000E011460A688242FBD34B685C18844277
:1031300003D140681844486008460D684468231865
:10314000AB420DD1094B143B1B689A4206D0526822
:10315000224442600A681268026002E0036000E0F4
:103160000260814200D0086030BD0000DC01002018
:1031700010B5044600F0D6FBA06B20B1002400F08F
:10318000DFFB204610BD0124F9E710B5044600F02E
:10319000C9FBA06BE16B884201D1012400E000244F
:1031A00000F0CEFB204610BD0648816B096800295F
:1031B00004D0816BC9680968816270474FF0FF31A4
:1031C000816270478401002010B5FEF7F7FA4FF4D2
:1031D00080342046FEF792FB3120FEF765FB002885
:1031E000FAD01F49022008600020FEF77DFB002076
:1031F000FEF7AAFB4FF48060FEF79CFB4FF4E01152
:103200002046FEF7B1FB0120FEF7A8FB3920FEF7B0
:103210004BFB0028FAD00220FEF7B0FBFEF75CFB68
:103220000828FBD101217D20FEF7BAFA012188038D
:10323000FEF7A8FA00214FF00060FEF781FA4FF484
:103240004070FEF773FA0420FEF75AFDFFF7C0FB4B
:10325000FEF7AEFDFDF7CCFDBDE81040FDF7ACBDBF
:1032600000200240BF2080F31188BFF34F8FBFF3CF
:103270006F8FFEE72DE9F041044600F053FB94F90F
:10328000455004F1240609E0606A48B1304601F077
:1032900079F808B100F0E4FB6D1E6DB2002DF3DC8F
:1032A0004FF0FF3684F8456000F04AFB00F03AFB2F
:1032B00094F9445004F1100709E0206948B13846F8
:1032C00001F060F808B100F0CBFB6D1E6DB2002D6F
:1032D000F3DC84F84460BDE8F04100F031BB00004D
:1032E0002DE9F0410546002600F0F8FB234F386831
:1032F00008B9FFF76BFE4DB105F00700C0F11000F3
:10330000C1438D4201D8054400E00025002D2FDD8A
:10331000786885422CD8194914310846046801E0C0
:10332000214604466068A84202D220680028F7D1EE
:10333000386884421CD00E680836206808606068CF
:10334000411B102904D9601941606560FFF7E6FE52
:1033500061687868401A7860BA68904200D2B860B4
:1033600041F00040606000202060F868401CF86078
:1033700001F06CF83046BDE8F0810000C801002083
:1033800020384FF08073C36121F00101816102494F
:10339000416140F8202970476532000808B50322D2
:1033A0000021012000F0F6FB0D4D286000220421D1
:1033B000012000F0EFFB0B4C206000200090461E27
:1033C0003146286800F078FD0128F9D1FEF7E8FAC7
:1033D0000090002332466946206800F045FCEFE784
:1033E0006C0100206801002070B527480021038887
:1033F000264802880846FDF7C3FD254C0020607072
:10340000234800F097FB60702178012905D1FF2146
:103410002170C12834D0C22834D000211DA2084612
:10342000FDF77CFE1CA200211820FDF777FEFEF7B9
:1034300069F9C0881BA100EB400080B2FDF728FEAF
:10344000FEF760F9C0884FF6FF7500EB400005EA13
:10345000400017A1FDF71CFEFEF754F9C08817A124
:1034600000EBC00080B2FDF713FEFEF74BF9C088F9
:1034700015A100EB400005EA8000FDF709FEBFE75B
:10348000062070BD032070BD140000201200002033
:10349000480100202D2D3E00CFB5CDB3C9E8D6C3DD
:1034A00000000000B1A8BEAFC9E8D6C3000000000C
:1034B000CDA8D1B6C9E8D6C300000000CDF8C2E758
:1034C000C9E8D6C300000000C0FACAB7B2E9D1AF5C
:1034D0000000000070B526480021038825480288B6
:1034E0000846FDF74DFD244C00206070224800F096
:1034F00021FB60702178012905D1FF212170C128AD
:1035000031D0C22831D0FEF7FDF81CA10020FDF714
:10351000BFFD1DA230210020FDF700FE1BA23021BF
:103520001820FDF7FBFDFEF7EDF8C0884FF6FF759C
:1035300000EB400005EA400017A1FDF7A9FDFEF7EA
:10354000E1F8C08817A100EBC00080B2FDF7A0FD34
:10355000FEF7D8F8C08816A100EB400005EA80000D
:10356000FDF796FDC2E7022070BD042070BD00008B
:10357000140000201200002048010020CFB5CDB378
:10358000C9E8D6C3000000002D2D3E00B1A8BEAF93
:10359000C9E8D6C300000000CDA8D1B6C9E8D6C39B
:1035A00000000000CDF8C2E7C9E8D6C30000000063
:1035B000C0FACAB7B2E9D1AF0000000010B5254883
:1035C00000210388244802880846FDF7D9FC234CD3
:1035D00000206070214800F0ADFA60702178012968
:1035E00005D1FF212170C12830D0C22830D0FEF78C
:1035F00089F81BA10020FDF74BFDFEF783F8C0887A
:103600001AA100EB400080B2FDF742FD1AA2602132
:103610000020FDF783FD19A260211820FDF77EFD33
:10362000FEF770F8C08818A100EBC00080B2FDF76B
:103630002FFDFEF767F8C0884FF6FF7100EB4000E2
:1036400001EA800013A1FDF723FDC3E7032010BDAD
:10365000052010BD140000201200002048010020A9
:10366000CFB5CDB3C9E8D6C300000000B1A8BEAF46
:10367000C9E8D6C3000000002D2D3E00CDA8D1B66C
:10368000C9E8D6C300000000CDF8C2E7C9E8D6C338
:1036900000000000C0FACAB7B2E9D1AF00000000D4
:1036A00070B5264800210388254802880846FDF7A2
:1036B00067FC244C00206070224800F03BFA6070E8
:1036C0002178012905D1FF212170C12831D0C228DC
:1036D00031D0FEF717F81CA10020FDF7D9FCFEF74A
:1036E00011F8C0881BA100EB400080B2FDF7D0FCB0
:1036F000FEF708F8C0884FF6FF7500EB400005EABA
:10370000400017A1FDF7C4FC18A290210020FDF78E
:1037100005FD17A290211820FDF700FDFDF7F2FF2F
:10372000C08816A100EB400005EA8000FDF7B0FC60
:10373000C2E7042070BD062070BD00001400002008
:103740001200002048010020CFB5CDB3C9E8D6C390
:1037500000000000B1A8BEAFC9E8D6C30000000059
:10376000CDA8D1B6C9E8D6C3000000002D2D3E007B
:10377000CDF8C2E7C9E8D6C300000000C0FACAB756
:10378000B2E9D1AF0000000010B525480021038840
:10379000244802880846FDF7F3FB234C00206070A4
:1037A000214800F0C7F960702178012905D1FF2177
:1037B0002170C12830D0C22830D0FDF7A3FF1BA153
:1037C0000020FDF765FCFDF79DFFC0881AA100EB06
:1037D000400080B2FDF75CFCFDF794FFC0884FF617
:1037E000FF7100EB400001EA400016A1FDF750FC1C
:1037F000FDF788FFC08816A100EBC00080B2FDF77E
:1038000047FC16A2C0210020FDF788FC14A2C021AD
:103810001820FDF783FCC3E7052010BD022010BD72
:10382000140000201200002048010020CFB5CDB3C5
:10383000C9E8D6C300000000B1A8BEAFC9E8D6C32E
:1038400000000000CDA8D1B6C9E8D6C30000000032
:10385000CDF8C2E7C9E8D6C3000000002D2D3E0018
:10386000C0FACAB7B2E9D1AF000000007047704794
:103870007047704770477047704770477047704790
:103880007047704770477047704770470169D0E9CB
:1038900001329A60D0E901235A604A68824201D11C
:1038A00082684A60002202610868401E0860086859
:1038B00070470000014880687047000084010020C4
:1038C00000F1080141604FF0FF328260C160016188
:1038D00000210160704700210161704730B50C681C
:1038E000621C02D000F1080202E0026904E01A46FC
:1038F00053681D68A542FAD953684B6099608A6085
:10390000516008610168491C016030BD42684A602D
:1039100093688B6093685960916008610168491CE5
:1039200001607047BF2080F31188BFF34F8FBFF352
:103930006F8F02480168491C01607047C401002074
:1039400004490868401E0860002801D180F31188EE
:1039500070470000C401002070B500281BD0083853
:1039600004466068002816DA2168002913D120F087
:103970000040606000F0B2F8074D60686968084474
:1039800068602046FFF7CAFB2869401C2861BDE833
:10399000704000F05BBD70BDC80100204FF0E0201A
:1039A0000021016181610249416107210161704784
:1039B0003F19010070B50446FFF7B4FF214D04B96B
:1039C0002C68201DFFF762FF58B9E06A1E4A00EB21
:1039D000800152F8211021B90121814028698843D2
:1039E0002861A06A18B104F11800FFF74FFF686A58
:1039F000401C68622868844208D11348211DA03009
:103A0000FFF784FF6868401C686004E0A868401EF7
:103A1000A860FFF7C9FBFFF793FF2868844202D034
:103A20002046FFF7C9FA686900280AD0286884424E
:103A300007D106494FF080500860BFF34F8FBFF3A6
:103A40006F8F70BD84010020E801002004ED00E0CC
:103A500002490A6A0260C968416070478401002017
:103A600001490120C86170478401002010B50C464F
:103A7000054909681831FFF731FF2046BDE81040BD
:103A80000121FFF79FB90000840100207CB50F4899
:103A90000025CDE900502B4680220DA10E4800F0F4
:103AA000ABFA0A4C2C3C01280ED1BF2080F31188C0
:103AB000BFF34F8FBFF36F8F4FF0FF30A062012035
:103AC0006061E56000F04EF8206B7CBDB001002025
:103AD00049444C4500000000153000080248416B85
:103AE000491C416370470000840100200F4A506B5D
:103AF000002802D00120D06170470020D0611069F9
:103B0000B0FA80F0C0F11F00094900EB800001EB22
:103B1000800041684968416000F10803994201D181
:103B2000496841604068C0681060704784010020A7
:103B3000E801002038B50446002000900848002223
:103B40006946006800F040F9012807D19DF800009F
:103B5000002803D0012020709DF8000038BD00002F
:103B60006001002010B50948016841F47F0101603F
:103B7000016841F07F410160FFF710FF0449002018
:103B80000860FCF7F1FA002010BD000020ED00E015
:103B9000C4010020F8B505460E4617460024002D46
:103BA00016D0601EB0FBF5F0B04211D305FB06F055
:103BB00010F1490F0CD84830FFF792FB04463CB196
:103BC000224648323B46314628460094FFF736FAF3
:103BD0002046F8BD2DE9F04104460F460125002C92
:103BE0003BD0E26BC2B3AE1EB6FBF2F1206C814259
:103BF00033D3FFF797FED4E90F20216802FB0011B1
:103C0000A1600021A16321686160E06B2268216CE2
:103C1000401E00FB0121E16084F8446084F84560A7
:103C200004F1100047B1FFF74BFE04F12400FFF749
:103C300047FEFFF785FE11E021690029F9D000F069
:103C4000A1FB0028F5D007494FF080500860BFF372
:103C50004F8FBFF36F8FECE7FFE700252846BDE8E5
:103C6000F081000004ED00E02DE9FF4782B004463A
:103C70008A4699460025A8464FF08056374FFFF7F1
:103C800051FEA06BE16B884206D3B9F1020F03D05D
:103C90000498F8B115B325E04A4651462046FFF78F
:103CA0005DF9616A51B104F1240000F06BFB58B179
:103CB0003E60BFF34F8FBFF36F8F05E020B13E60D2
:103CC000BFF34F8FBFF36F8FFFF73AFE012006B0AF
:103CD000BDE8F087FFF734FE0020F8E76846FFF7FD
:103CE000B7FE0125FFF72CFEFFF7F8FEFFF71AFEDF
:103CF00094F94400401C01D184F8448094F94500B3
:103D0000401C01D184F84580FFF71AFE04A96846DB
:103D100000F046F930B12046FFF7ACFA00F096FB10
:103D20000020D4E72046FFF730FA88B104F11000F4
:103D30000499FFF79BFE2046FFF79CFA00F086FBF4
:103D400000289CD13E60BFF34F8FBFF36F8F96E783
:103D50002046FFF78FFA00F079FB90E704ED00E0D2
:103D60002DE9F04104460F46BF20EFF3118680F3A2
:103D70001188BFF34F8FBFF36F8FA26BE06B904240
:103D80001CD994F94550521CA263681C08D0FFF757
:103D900091FD854202D26D1C84F8455001200EE051
:103DA000606A0028FAD004F1240000F0EBFA002841
:103DB000F4D0002FF2D001203860EFE7002086F326
:103DC0001188BDE8F08100002DE9F74783B0044673
:103DD0008A46002600274FF08058DFF8D890FFF77A
:103DE000A1FDA56BC5B151462046FFF7A3F86D1E96
:103DF000A563206950B104F1100000F0C3FA28B1A6
:103E0000C9F80080BFF34F8FBFF36F8FFFF798FDA6
:103E1000012006B0BDE8F087059808B126B107E09B
:103E2000FFF78EFD0020F4E701A8FFF711FE012641
:103E3000FFF786FDFFF752FEFFF774FD94F944008B
:103E4000401C01D184F8447094F94500401C01D114
:103E500084F84570FFF774FD05A901A800F0A0F8EB
:103E600058B12046FFF706FA00F0F0FA2046FFF7B7
:103E70007FF90028B3D00020CBE72046FFF778F980
:103E800090B104F124000599FFF7F0FD2046FFF7FB
:103E9000F1F900F0DBFA0028A1D1C9F80080BFF3E6
:103EA0004F8FBFF36F8F9AE72046FFF7E3F900F0DB
:103EB000CDFA94E704ED00E02DE9F34182B0044629
:103EC000002500264FF08057DFF8D080FFF72AFD4D
:103ED000A06BA0B1401EA063206950B104F1100096
:103EE00000F050FA28B1C8F80070BFF34F8FBFF34D
:103EF0006F8FFFF725FD012004B0BDE8F081039826
:103F000008B125B107E0FFF71BFD0020F4E7684684
:103F1000FFF79EFD0125FFF713FDFFF7DFFDFFF71C
:103F200001FD94F94400401C01D184F8446094F9E7
:103F30004500401C01D184F84560FFF701FD03A94D
:103F4000684600F02DF858B12046FFF793F900F0CD
:103F50007DFA2046FFF70CF90028B7D00020CBE708
:103F60002046FFF705F990B104F124000399FFF70B
:103F70007DFD2046FFF77EF900F068FA0028A5D104
:103F8000C8F80070BFF34F8FBFF36F8F9EE72046D6
:103F9000FFF770F900F05AFA98E7000004ED00E02E
:103FA0002DE9F04106460D46FFF7BCFC1148C368F9
:103FB00074681A1B29684F1C0AD03768D0F820C0D3
:103FC0000020674506D09C4204D8012428600CE0FC
:103FD00000240AE0914206D9881A28603046FFF78B
:103FE00037FD002401E028600124FFF7A9FC2046EA
:103FF000BDE8F081840100202DE9FF5F8146DDE905
:104000000E788A4616469B46B000FFF769F90546CA
:1040100028000ED04C20FFF763F904462CB14C2148
:104020002046FCF706F9256304E02846FFF794FCD8
:1040300000E000248CB10020CDE90240CDE90078F9
:104040005B46324651464846FFF704F82046FEF7E5
:10405000FFFE012004B0BDE8F09F4FF0FF30F9E70C
:1040600070B503460D460024FFF738FD1148C268BD
:1040700018684119904205D9884208D9914206D959
:10408000012404E0884201D8914200D9012419603A
:104090001CB1881A0021FEF795FE00F0D7F938B957
:1040A00005494FF080500860BFF34F8FBFF36F8F0B
:1040B000204670BD8401002004ED00E02DE9F047AA
:1040C0000446DDF82090884615461F460126FFF776
:1040D00029FC04EB8800B9F1000F02D0416CC9F84B
:1040E000001004EB080212F8481F02231370052F7A
:1040F00013D2DFE807F01203070B0D00426C2A43CE
:1041000042640AE0426C521C426406E0456404E0EA
:10411000022901D0456400E0002601293FD16069F1
:10412000D4E902219160D4E9021251604268211D54
:104130008A4201D1E2684260002262610268521E36
:104140000260194BE06A01221D6982402A431A610C
:10415000164A00EB800002EB80004068A060856892
:10416000E560856869608160E06A00EB800002EBD1
:1041700080006061E06A00EB800052F82010491C6A
:1041800042F82010E06A1968C96A884207D90849CC
:104190004FF080500860BFF34F8FBFF36F8FFFF772
:1041A000CFFB3046BDE8F08784010020E801002005
:1041B00004ED00E02DE9F0470446884617461D4609
:1041C000DDF82090FFF7AEFB224E3068204490F8D7
:1041D000480002281AD0306800EB8400416C21EAC4
:1041E0000801416431680120214481F84800B9F197
:1041F000000F0BD001214846FEF7E4FD16494FF0B1
:1042000080500860BFF34F8FBFF36F8FFFF798FBAD
:10421000FFF788FB25B1306800EB8400406C286014
:104220003068204490F84800022801D0002506E0BC
:10423000306800EB8400416CB9434164012531686A
:104240000020214481F84800FFF77AFB2846BDE8AA
:10425000F08700008401002004ED00E00148C06800
:1042600070470000840100202DE9F0410025434EF5
:10427000706B002805D0B069401CB0612846BDE8CD
:10428000F081F468641CF46044B9B06BF16BB16305
:10429000F063306A401C3062FEF786FFB06A384F28
:1042A00084420FD34FF0000CB06B006838B1B06B94
:1042B000C068C1684868844212D2B06202E04FF020
:1042C000FF30B0623068C06A00EB800057F8200011
:1042D000012800D90125F0690028CFD00125CDE7BC
:1042E0004A69D1E902309860D1E902035860506808
:1042F0000B1D984201D1C8685060C1F814C0106805
:10430000401E10608A6A9AB1D1E90780C8F8080097
:10431000D1E90708C8F80400506801F118084045C1
:1043200001D1086A5060C1F828C01068401E1060B2
:10433000C86A0122D6F81080824042EA080232613F
:1043400000EB800007EB800042688A609068C860DC
:10435000906843609360C86A00EB800007EB8002BE
:104360004A6157F82020521C47F82020C86A31685B
:10437000C96A884298D9012596E700008401002087
:10438000E801002070B5C068C068816AD0E90732D2
:104390009A60D0E907235A604B6800F118029342F3
:1043A00001D1036A4B60002585620B685B1E0B60C0
:1043B000244B596B012499B1234D6968C1618E6802
:1043C00006628E6872608A6085622968491C29606D
:1043D000C06A1968C96A884232D90120DC6170BD9F
:1043E0004169D0E90262B260D0E9022672604E688B
:1043F000021D964201D1C6684E6045610D686D1E72
:104400000D60C16A1E6904FA01F535431D610E4D48
:1044100001EB81018C3D05EB8101496881608E686B
:10442000C6608E6872608A60C16A01EB810105EB2B
:104430008102426155F82120521C45F82120C7E72E
:10444000002070BD84010020740200202DE9F0419D
:104450000024A046FFF766FA3E4D686B401E686375
:10446000686B002871D1A86800286ED000273A4AEE
:1044700001264EE0D068C468A16AD4E9073098608C
:10448000D4E9070358604B6804F11800834201D156
:10449000206A4860A7620868401E08606169D4E924
:1044A00002309860D4E9020358604B68201D8342B3
:1044B00001D1E3684B6067610B685B1E0B60E16ACA
:1044C000D5F810C006FA01F343EA0C032B61224B26
:1044D00001EB81018C3B03EB81014968A160D1F8BC
:1044E00008C0C4F80CC0D1F808C0CCF8040088603B
:1044F000E06A00EB800003EB8001616153F820105B
:10450000491C43F82010E06A2968C96A884200D330
:10451000EE6110680028ADD10CB1FEF745FEAC6924
:104520003CB1FFF7A1FE00B1EE61641E002CF8D192
:10453000AF61E86948B14FF0010808494FF0805079
:104540000860BFF34F8FBFF36F8FFFF7F9F9404655
:10455000BDE8F081840100207402002004ED00E039
:10456000000000000000000000000000000000004B
:104570000000001818181818180800081800000083
:10458000000000342424240000000000000000008B
:104590000000000016247F2424247E242400000030
:1045A000000000083E6848681C1612127C101000BB
:1045B00000000061D296740810162949C600000058
:1045C000000000003C646438724ACE467F00000060
:1045D000000000181818180000000000000000007B
:1045E00000000004081810303030301010180C048F
:1045F000000000201008080C0404040C0818102007
:10460000000000080A341C6A0800000000000000D6
:104610000000000000001818187F1818180000008B
:104620000000000000000000000000181808300022
:104630000000000000000000003C0000000000003E
:10464000000000000000000000000018180000003A
:104650000000000206040C08081010202040000092
:10466000000000003C6642475B7342663C0000006D
:104670000000000018784808080808087E000000BC
:10468000000000003C460606040810207E000000E2
:10469000000000007C0606043C0202067C000000CC
:1046A000000000000C1C14246444FF0404000000FB
:1046B000000000007E6060607E0202067C00000058
:1046C000000000001E306048764242623C0000005C
:1046D000000000007E0206040C08181030000000E4
:1046E000000000003C6242361C6642423C00000072
:1046F000000000003C664242661A02047800000096
:104700000000000000001818000000181800000049
:104710000000000000001818000000181808300001
:1047200000000000000004183060100C06000000BB
:1047300000000000000000007E007E00000000007D
:10474000000000000000301804060C1020000000DB
:10475000000000301C0606061810001010000000B3
:104760000000001C224141DDB5A5A5AF94C0403C2E
:1047700000000000181C342426627E43C1000000A3
:10478000000000007C4642467C4242427C00000021
:10479000000000001E204040404040603E000000FD
:1047A000000000007C46424343434246780000003C
:1047B000000000007E6060607E6060607E0000003F
:1047C000000000007E6060607E606060600000004D
:1047D000000000001E604040CE4242623E000000E9
:1047E00000000000424242427E424242420000003B
:1047F000000000007E181818181818187E00000015
:10480000000000007C040404040404447800000058
:10481000000000004244485070584C4442000000E0
:104820000000000020202020202020203E0000004A
:10483000000000006266675F5B5BC1C1C1000000F1
:1048400000000000626272525A4A4E464600000062
:10485000000000003C6243C3C3C343623C0000004D
:10486000000000007C464242467840404000000084
:10487000000000003C6243C3C3C343623C180F0006
:10488000000000007C6662667C6C6466620000006A
:10489000000000003E6040601C0602027C00000038
:1048A000000000007F1818181818181818000000C9
:1048B0000000000042424242424242623C0000008C
:1048C00000000000C14342622624341C180000008E
:1048D00000000000C1C141495B5B766666000000D4
:1048E0000000000043663418181C2466C300000052
:1048F00000000000C14266341C181818180000009F
:10490000000000007E02040C181020607E000000F1
:104910000000001C10101010101010101010101CAF
:10492000000000402020101008080C0406020000BF
:104930000000003C0C0C0C0C0C0C0C0C0C0C0C3C7B
:1049400000000000181C24620000000000000000AD
:10495000000000000000000000000000000000FF58
:104960000000002010000000000000000000000017
:104970000000000000003C06023E42467A000000B3
:104980000000004040405C62424242427C00000025
:104990000000000000001E20604060203E0000007B
:1049A0000000000202023E62424242663A000000FB
:1049B0000000000000003C62427E40603E000000BB
:1049C0000000000F1810107E1010101010000000D2
:1049D0000000000000003F66426658403E43423CF3
:1049E0000000004040405C624242424242000000FF
:1049F0000000001818007808080808087E00000069
:104A0000000000040C007C040404040404040C787A
:104A1000000000606060626C787068646200000092
:104A20000000007808080808080808087E00000050
:104A3000000000000000764B4B4B4B4B4B0000003E
:104A40000000000000005C6242424242420000005E
:104A50000000000000003C62424342623C00000053
:104A60000000000000005C62424242427C40404044
:104A70000000000000003E62424242663A0202022A
:104A80000000000000006E72636060606000000063
:104A90000000000000003E20203C06027C000000D8
:104AA000000000001010FE10101010101E0000007A
:104AB0000000000000004242424242663A0000000C
:104AC0000000000000004342662434181800000073
:104AD000000000000000C1C15B5A5E666600000075
:104AE00000000000000062261C181C266200000066
:104AF00000000000000043426624341C181830E017
:104B00000000000000007E060C1810207E0000004F
:104B10000000000E18101010307010101010180E39
:104B20000000080808080808080808080808080815
:104B300000000030180808080C0E08080808183093
:104B40000000000000000000714B060000000000A3
:104B5000704B000800000020E80100006C0800080D
:104B6000604C0008E8010020C8480000641F0008ED
:104B7000511AA00271120612F023400123FFFF1AFE
:104B8000200313604513080862105926137D2B1A61
:104B900008231113612D33080213E933330803137B
:104BA000D53433080413BD3533080513A136330853
:104BB000061389373308072B6D384C211A6F0832DA
:104BC000091A7108320A1A7308320B1A7508320C66
:104BD0001A7708320D1A7908320E1A7B082A0F78D4
:104BE0001908298A1A7F0832111A810832121A8389
:104BF0000832131A850832141A8708321513A52AA9
:104C000033081613A3283308171A5FB032181A8B0B
:104C10002032191A9F18321A1A9D08321B1AA70837
:104C20002A1CB81908321D1A5D302A1EC0193032EC
:104C30001F132F293308201AA9202A2160190832AE
:104C4000221A2D180227FF45020406082D0102032F
:104C50000404053006070809F2041AAA010120001D
:0400000508000131BD
:00000001FF
